:020000040800F2
:1000000078060020310200086D0200086F02000827
:100010007102000873020008750200080000000069
:10002000000000000000000000000000770200084F
:1000300079020008000000007B020008A91D0008EA
:100040007F0200087F0200087F0200087F0200088C
:100050007F0200087F0200087F0200087F0200087C
:100060007F020008CD0500087F0200087F0200081B
:100070007F0200087F0200087F0200087F0200085C
:100080007F0200087F0200087F0200087F0200084C
:100090007F0200087F0200087F020008E5050008D3
:1000A0007F0200087F0200087F0200087F0200082C
:1000B0007F0200087F0200087F0200087F0200081C
:1000C0007F0200087F0200087F0200087F0200080C
:1000D0007F0200087F0200087F0200087F020008FC
:1000E0007F0200087F0200087F0200087F020008EC
:1000F0007F0200087F0200087F0200087F020008DC
:100100007F0200087F0200087F0200087F020008CB
:100110007F0200087F0200087F0200087F020008BB
:100120007F0200087F0200087F0200087F020008AB
:100130007F0200087F0200087F0200087F0200089B
:100140007F0200087F0200087F0200087F0200088B
:100150007F0200087F0200087F0200087F0200087B
:100160007F0200087F0200087F0200087F0200086B
:100170007F0200087F0200087F02000800000000E4
:100180007F0200087F02000800F002F800F041F84A
:100190000AA090E8000C82448344AAF10107DA45E2
:1001A00001D100F036F8AFF2090EBAE80F0013F0F3
:1001B000010F18BFFB1A43F001031847702100001C
:1001C00090210000103A24BF78C878C1FAD85207AD
:1001D00024BF30C830C144BF04680C6070470000C1
:1001E0000023002400250026103A28BF78C1FBD840
:1001F000520728BF30C148BF0B607047642900F028
:100200006D80002070471FB502F066F81FBD10B565
:1002100010BD00F0A5F91146FFF7F5FF01F0BEFF94
:1002200000F0C3F903B4FFF7F2FF03BC00F0C6F916
:1002300016481749174B99423CBF50F8042B41F818
:10024000042BF8D314494FF000028B4238BF43F817
:10025000042BFAD3DFF84400016841F47001016017
:10026000BFF34F8FBFF36F8F0D480047FEE7FEE7E8
:10027000FEE7FEE7FEE7FEE7FEE7FEE7FEE7FEE756
:1002800008480949094A0A4B704700004C230008F6
:1002900000000020140000207806002088ED00E017
:1002A00089010008780000207806002078020020EC
:1002B000780200200FB41CB5074B06AA7B446946A0
:1002C0000090059800F02FF90020694600F03EF9F3
:1002D0001CBC5DF814FB00008D0200002DE9F0410C
:1002E0000646002410687529314616A510D0AFF3D4
:1002F0000080002802DA404213A507E031688A072F
:1003000001D512A502E0490704D511A5012401E099
:10031000AFF3008000210A2206F1240709E0B0FBB8
:10032000F2FCB0FBF2F302FB1C00303078541846AC
:10033000491C0028F3D123462A463046BDE8F04147
:1003400000F092B8000000002D0000002B0000001B
:10035000200000002DE9F0474FF0000A89460446CE
:10036000C0F820A02046E1688847002876D02528DC
:1003700006D0D4E901219047206A401C2062F1E7B1
:10038000E168204600258847C4F81CA006460027DF
:10039000C4F818A02A2E09D0304601F0A3FE38B3C5
:1003A00004EB8708303EC8F8186019E059F8041BC0
:1003B000204604EB87029161E1688847012F0646D9
:1003C00018D1E069002820DA25F020051DE0D8F8D2
:1003D000180000EB800006EB40003038C8F8180029
:1003E0002046E1688847064601F07CFE0028EED1F1
:1003F000012F0AD02E2E08D12046E16888477F1CA5
:100400000646022F45F02005C4DBA069002803DA68
:10041000404245F00105A061E80701D025F0100534
:10042000B6B1A6F14100192802D8203645F400657E
:100430004A463146204625604D46FFF7DFFE58B15B
:10044000012806D0ED1D25F0070000F1080989E715
:1004500004E005F1040985E730468AE7206ABDE833
:10046000F0877047704770472DE9F0470D46994671
:100470009246044600F124080168880604D5E06924
:1004800021F01001216000E00120A84201DD471B9E
:1004900000E00027A1697A1902EB0900081AA0619F
:1004A0002078C00602D42046AFF30080002608E082
:1004B000D4E901211AF806009047206A401C761CF6
:1004C00020624E45F4DB2078C0060AD52046AFF303
:1004D000008006E0D4E9012130209047206A401CCA
:1004E0002062381EA7F10107F4DC07E0D4E90121FE
:1004F00018F805009047206A401C2062281EA5F1CC
:100500000105F3DC2046AFF300802078000602D519
:100510000220BDE8F0870120FBE7000001694A1CCA
:1005200002610878704700B58FB0CDE90131002134
:10053000059105497944CDE9031011466846FFF756
:1005400009FF0FB000BD0000E5FFFFFF0A6802F8D9
:10055000010B0A607047000000487047140000203B
:100560007546FFF7F9FFAE4605006946534620F091
:100570000700854618B020B5FFF782FEBDE8204091
:100580004FF000064FF000074FF000084FF0000B4F
:1005900021F00701AC46ACE8C009ACE8C009ACE802
:1005A000C009ACE8C0098D46704710B50446AFF3EA
:1005B00000802046BDE81040FFF734BE01491820F6
:1005C000ABBEFEE7260002007047000010B50448ED
:1005D000006840F008000249086001F0BBFD10BD52
:1005E0001404014010B50448006840F0200002499E
:1005F000086001F07EFD10BD14040140124800683F
:1006000020F40040104908600846006840F480402B
:100610000860081D006820F08000091D0860081DA2
:10062000006840F44040091D0860081D006820F47F
:100630004040091D086004481430006840F0800004
:100640000149143108607047000C004837B588B084
:1006500005461446012C04DD9DF8240040F04000BE
:1006600009901048006820F080000E4908600A20B8
:1006700001F050FB01236A4609A90B4801F074FB05
:1006800023466A462946084801F06EFB0A2001F01D
:1006900041FB0448006840F08000024908600BB04C
:1006A00030BD0000140C00480038004010B5074869
:1006B000006E40F001000549086601F02BFA01F0D8
:1006C000ADFAFFF79BFF00F073F910BD0010024078
:1006D0002C48006820F440502A4908600846006809
:1006E00040F4005008600846006820F4404008606C
:1006F0000846006840F40040086022482030006846
:1007000020F070601F49203108600846006840F002
:10071000806008600846006820F070400860084665
:10072000006840F0804008601648001D006840F0F6
:1007300040001449091D08600846006840F0800028
:100740000860081D006840F44050091D0860084614
:10075000006840F440400860081D006820F44050E4
:10076000091D08600846006840F48050086008468B
:10077000006820F4404008600846006840F480406B
:10078000086070470004004852204749896D41F4D1
:100790000011454A916544498831096821F4405166
:1007A000C2F888101146D1F8881041F48051C2F87F
:1007B00088101146896B41F4001191631146896BD1
:1007C00021F4001191633949096821F00101374A88
:1007D00011601146096821F48051116011460968C1
:1007E00021F4706111601146096841F080011160C7
:1007F0001146096821F400311160111D096821F4C6
:100800000061121D11601146096841F0007111600C
:100810001146096841F4004111600021234A103259
:1008200011601146096841F0E04111601146096804
:1008300041F4700111601146096841F470211160A2
:100840001146096841F4345111601146096841F0BC
:100850003701116015490831096821F40041134A34
:1008600008321160111D096821F40041121D116048
:10087000111F096821F48061121F11601146096877
:100880006FF3090111601146096841EA40011160E6
:100890001146096841F4004111600449096841F0BA
:1008A0000101024A116070470010024000540040EC
:1008B0002DE9F0410446884617461D46002D00DD0F
:1008C0001FB94FF0FF30BDE8F081204600F057F827
:1008D00000232A464146204600F028F8002802DA84
:1008E0004FF0FF30EFE7002608E000BFA06900F0FE
:1008F00002000028FAD0B85DA062761CAE42F4DB9C
:1009000000BFA06900F0400020B9A06900F010000D
:100910000028F6D0A06900F0100010B14FF0FF30B1
:10092000D1E7204600F020F80020CCE770B504465F
:100930000D46002161680B480140012B02D141F4B2
:10094000806101E021F48061C5F309004FF47F0666
:1009500006EA02463043014341F400516160002041
:1009600070BD0000009800FC416841F48041416086
:1009700000BF816901F020010029FAD0704700BF53
:10098000816901F40041B1F5004FF9D070470000D2
:1009900010B50123034A044801780448FFF788FF93
:1009A00010BD0000030000200200002000540040A1
:1009B00008B53F200090012220216846FFF746FE3F
:1009C00030200090012223216846FFF73FFE08BD3A
:1009D000002000BF0B49096801F004010029F9D18A
:1009E000002006E0002207490C3141F82020411C7C
:1009F000C8B20F28F6DD0349096841F00401014A35
:100A000011607047082400402F48806D00F080502E
:100A100028B92D48806D40F080502B4988652A48C0
:100A2000806D2A48006800F4807060B9274800682B
:100A300040F480702549086000BF2448006800F435
:100A400080700028F9D020489030006820F0050020
:100A50001D49C1F890000846D0F8900040F480305D
:100A6000C1F890000846D0F8900020F48030C1F81A
:100A7000900007E014489030006840F001001249EF
:100A8000C1F8900010489030006800F00200002883
:100A9000F0D00D489030006820F440700A49C1F849
:100AA00090000846D0F8900040F48070C1F89000A3
:100AB0000846806D20F0805088650846806D40F4BF
:100AC0000070886570470000001002400070004010
:100AD0003E48006820F001003C490860081D00689D
:100AE00040F47010091D08600846006820F070701E
:100AF00008600846006820F4403008600846006836
:100B000020F4604008600846006840F480400860B7
:100B10000846006840F0700008600846006820F44D
:100B2000E05008600846006840F4A050086008469D
:100B3000006820F0700008600846006840F040003F
:100B4000086000BF21480830006800F0200000283D
:100B5000F8D01E48006820F01C001C4908600846B8
:100B6000006840F00C0008600846006820F0600053
:100B700008600846006840F04000086008460068C9
:100B800020F0800008600846006820F0020008603D
:100B90000846006840F00100086000BF0B480830BC
:100BA000006800F001000028F8D000BF07480830B6
:100BB000006800F010000028F8D0044808300068F1
:100BC00040F00400014908310860704700240040EB
:100BD000F0B50C4615460021002600220778332F79
:100BE00048D00FDCA7F12007132F50D2DFE807F021
:100BF0001F4F4F4F4F394F4F242621344F314F371E
:100C00003F404100392F3BD008DCA7F13407052FC6
:100C10003DD2DFE807F0303132333400642F0FD09B
:100C20006D2F10D06E2F11D0FF2F30D11CE000217E
:100C300046E04AF2DD0143E0282141E011213FE096
:100C40004FF473413CE04BF2102139E042F21021A5
:100C500036E04FF4204133E04AF2140130E0C02185
:100C60002EE04FF433412BE04FF6DD7128E000BF5A
:100C700000BF00BF00BF00BF00BF00BF00BF00BF7C
:100C80000778303FDFF864C03CF8171018E00778A9
:100C90005B2F08DA0778402F05DD0778413FDFF842
:100CA00050C03CF8171007787B2F08DA0778602FC0
:100CB00005DD0778613FDFF838C03CF8171000BF4A
:100CC00000BF0CB141F002010DB141F020010C2632
:100CD000002208E041FA06F707F00F079F54371F7C
:100CE000FEB2571CFAB2042AF4DBF0BD162300084A
:100CF000E22200082DE9F0410446002500260027E5
:100D000020E060783A2801D1012600E000266078D2
:100D10002E2801D1012700E000270EB1012000E0BC
:100D2000002002460FB1012000E0002001462B46C2
:100D3000204600F0F1F8641C06B1641C07B1641C85
:100D4000681CC5B2207808B1062DDADBBDE8F08159
:100D500000B500F007F8FFF757FEFFF7B9FEFFF701
:100D600037FE00BD5E48C06C40F00F005C49C864AF
:100D70004FF0904000685B4908404FF09041086098
:100D800008460068584908434FF0904108600846FB
:100D9000006A40F03B4008620846406A53490843F5
:100DA0004FF090414862084680684E4908404FF035
:100DB00090418860084680684B4908434FF0904155
:100DC00088600846C068474908404FF09041C860B5
:100DD0004748006847490840454908600846006898
:100DE000454908434249086041482030006840F0C6
:100DF000BB103F49203108603D48406A3F490843E5
:100E00003B4948623A48083000683A490840384946
:100E100008310860084600683749084334490831FA
:100E20000860081D00683349084031490C310860EA
:100E30003348006833490840314908600846006873
:100E4000314908432E4908602D48203000682F4959
:100E500008432B49203108602948406A40F00B01C3
:100E6000274841622648083000682649084024493E
:100E700008310860084600682349084320490831C2
:100E80000860081D00681F4908401D490C310860B2
:100E90001F48006880B21E490860084600681D4966
:100EA00008431B4908600846406A40F0BB311848B7
:100EB00041621748083000686FF30F001449083189
:100EC0000860084600681349084311490831086062
:100ED000081D00686FF30F00091D086070470000CF
:100EE00000100240FF0FC03F00A02A80BB0B00B0E3
:100EF00000040048F0F0F3000A0A08AAB000BBBBE7
:100F0000000800483F00FCFF80AA020000B0BBBB05
:100F1000000C00480000AAAAF8B505460E46174680
:100F20001C466B463A4631462846FFF751FE00BF45
:100F3000FE48006800F004000028F9D1062C7DD29C
:100F4000DFE804F00398FCFBFAF9F8480C3000687D
:100F5000F7490840F5490C310860F4480838C06981
:100F6000F3490840F1490839C8610846406AF04928
:100F70000840EE49083948620846C06AEC49084012
:100F8000EA490839C8629DF80000C007C00E9DF804
:100F90000010C1F3400140EAC1509DF80010C1F3B8
:100FA000800140EA81509DF80010C1F3C00140EA81
:100FB000C100DE490C3109680843DC490C31086086
:100FC0009DF80100C007C00E9DF80110C1F340015B
:100FD00040EAC1509DF80110C1F3800140EA815000
:100FE0009DF80110C1F3C00140EAC100CF490839A2
:100FF000C9690843CD490839C8619DF80200C00796
:10100000C00E9DF80210C1F3400140EAC1509DF8A6
:101010000210C1F3800140EA81509DF80210C1F333
:10102000C00140EAC100C1490839496A0843BF49C3
:10103000083948629DF80300C00700E02EE3C00EA7
:101040009DF80310C1F3400140EAC1509DF8031020
:10105000C1F3800140EA81509DF80310C1F3C00143
:1010600040EAC100B1490839C96A0843AF490839A3
:10107000C86214E3AD480C30006843F26001884355
:10108000AA490C310860A9480838C06943F26001D8
:101090008843A6490839C8610846406A43F260019E
:1010A0008843A249083948620846C06A43F2600191
:1010B00088439E490839C8629DF80000C007400E69
:1010C0009DF80010C1F3400140EA41309DF8001046
:1010D000C1F3800140EA01309DF80010C1F3C00166
:1010E00040EA411091490C31096808438F490C319D
:1010F00008609DF80100C007400E9DF80110C1F383
:10110000400140EA41309DF80110C1F3800140EAFE
:1011100001309DF80110C1F3C00140EA411083493C
:101120000839C969084381490839C8619DF8020036
:10113000C007400E03E028E27CE1CAE036E09DF8FB
:101140000210C1F3400140EA41309DF80210C1F3A2
:10115000800140EA01309DF80210C1F3C00140EA6D
:10116000411072490839496A084370490839486290
:101170009DF80300C007400E9DF80310C1F3400125
:1011800040EA41309DF80310C1F3800140EA01308C
:101190009DF80310C1F3C00140EA411063490839CA
:1011A000C96A084361490839C86278E25F480C306F
:1011B0000068604908405D490C3108605B480838A8
:1011C000C0695C49084059490839C8610846406A05
:1011D000584908405549083948620846C06A554987
:1011E000084052490839C8629DF80000C007000C49
:1011F0009DF80010C1F3400140EA41709DF80010D5
:10120000C1F3800140EA01709DF80010C1F3C001F4
:1012100040EA813045490C310968084343490C31A3
:1012200008609DF80100C007000C9DF80110C1F393
:10123000400140EA41709DF80110C1F3800140EA8D
:1012400001709DF80110C1F3C00140EA81303749B7
:101250000839C969084335490839C8619DF8020051
:10126000C007000C9DF80210C1F3400140EA417034
:101270009DF80210C1F3800140EA01709DF8021050
:10128000C1F3C00140EA813028490839496A08435E
:101290002649083948629DF80300C007000C9DF8F4
:1012A0000310C1F3400140EA41709DF80310C1F3FF
:1012B000800140EA01709DF80310C1F3C00140EACB
:1012C00081301A490839C96A084318490839C8627F
:1012D000E5E116480C30006820F0404013490C311D
:1012E000086012480838806920F003010F48083868
:1012F0008161C06920F040410C480838C161006A32
:1013000020F00301094808380162406A20F040419A
:10131000064808384162806A20F003010348083813
:101320008162C06A20F04041004805E00824004086
:10133000E7FF3FFFFF3FFFCF0838C162006B20F09F
:101340000301DC4801639DF80000C0079DF8001010
:10135000C1F3C00140EA8170D649143109680843DD
:10136000D449143108609DF80000C0F380009DF856
:101370000010C1F3400140EA4100CE4989690843A9
:10138000CC4988619DF80100C0079DF80110C1F3A8
:10139000C00140EA8170C749C9690843C549C861AD
:1013A0009DF80100C0F380009DF80110C1F34001D9
:1013B00040EA4100BF49096A0843BE4908629DF8F6
:1013C0000200C0079DF80210C1F3C00140EA81701D
:1013D000B849496A0843B74948629DF80200C0F31A
:1013E00080009DF80210C1F3400140EA4100B1497C
:1013F000896A0843AF4988629DF80300C0079DF8D9
:101400000310C1F3C00140EA8170AA49C96A0843C8
:10141000A849C8629DF80300C0F380009DF803103E
:10142000C1F3400140EA4100A249096B0843A149C8
:10143000086334E19F481430006820F040709D49F3
:10144000143108609B48806920F00C019948816143
:10145000C06920F040719748C161006A20F00C011A
:1014600094480162406A20F0407192484162806A6B
:1014700020F00C018F488162C06A20F040718D48D5
:10148000C162006B20F00C018A4801639DF80000E6
:10149000C0F3400040069DF80010C1F3800140EA0F
:1014A0000160844914310968084382491431086095
:1014B0009DF80000C007000F9DF80010C1F3C001A7
:1014C00040EA81007B49896908437A4988619DF82F
:1014D0000100C0F3400040069DF80110C1F38001F7
:1014E00040EA01607349C96908437249C8619DF8BF
:1014F0000100C007000F9DF80110C1F3C00140EAD0
:1015000081006C49096A08436A4908629DF8020033
:10151000C0F3400040069DF80210C1F3800140EA8C
:1015200001606449496A0843624948629DF80200C3
:10153000C007000F9DF80210C1F3C00140EA81000E
:101540005C49896A08435B4988629DF80300C0F3DF
:10155000400040069DF80310C1F3800140EA01609D
:101560005449C96A08435349C8629DF80300C0073B
:10157000000F9DF80310C1F3C00140EA81004D49FE
:10158000096B08434B49086389E04A4814300068F6
:10159000494908404749143108604648C0694649EE
:1015A00008404449C8610846406A434908404149E7
:1015B00048620846C06A404908403E49C8629DF8F2
:1015C0000000C007800B9DF80010C1F3400140EA05
:1015D00001209DF80010C1F3800140EA41209DF8F0
:1015E0000010C1F3C00140EA81603249143109683A
:1015F00008433049143108609DF80100C007800B92
:101600009DF80110C1F3400140EA01209DF801104E
:10161000C1F3800140EA41209DF80110C1F3C001EF
:1016200040EA81602349C96908432249C8619DF89D
:101630000200C007800B9DF80210C1F3400140EA90
:1016400001209DF80210C1F3800140EA41209DF87D
:101650000210C1F3C00140EA81601649496A08439B
:10166000144948629DF80300C007800B9DF80310E1
:10167000C1F3400140EA01209DF80310C1F380014D
:1016800040EA41209DF80310C1F3C00140EA8160A7
:101690000849C96A08430749C86200E000BF00BFA3
:1016A00004480830006840F004000249083108602E
:1016B000F8BD000000240040FFFCFDFB9848C06C12
:1016C00040F001009649C8640846806D40F0010072
:1016D00088654FF09040006840F400604FF0904102
:1016E00008600846006820F48060086008460068CA
:1016F00040F0080008600846006820F00400086018
:101700000846006840F0200008600846006820F0A5
:10171000100008600846006840F080000860084635
:10172000006820F0400008600846806840F440608F
:1017300088600846806840F00C0088600846806831
:1017400040F0300088600846806840F0C000886043
:101750000846C06820F44060C8600846C06820F0B1
:101760000C00C8600846C06820F03000C860084619
:10177000C06820F0C000C8600846006A20F470000D
:1017800008620846006A40F4801008620846006A51
:1017900020F0F00008620846006A40F0100008627D
:1017A0000846006A20F4706008620846006A40F447
:1017B000807008620846006A20F47040086208469B
:1017C000006A40F480500862C800006820F01000F1
:1017D000C90008600F20886242F20F70C862084694
:1017E0008069504908404FF080418861084680690F
:1017F00040F0200088610846806940F04000886120
:1018000008468069484908404FF080418861084691
:10181000806940F4005088610846806940F4804047
:1018200088610846C0693F4908404FF08041C8615F
:101830000846C06940F02000C8610846C06940F011
:101840004000C8610846C069374908404FF08041F0
:10185000C8610846C06940F40050C8610846C069C4
:1018600040F48040C8610846806940F00800886103
:101870000846806940F4006088610846C06940F00D
:101880000800C8610846C06940F40060C8610846A5
:10189000006A20F0020008620846006A20F020007A
:1018A00008620846006A20F4007008620846006A70
:1018B00020F4005008620846006A40F00100086207
:1018C0000846006A40F0100008620846006A40F4CA
:1018D000807008620846006A40F48050086208463A
:1018E000006840F0800008600846406940F0010050
:1018F00048610846006820F06000086008460068FB
:1019000020F01000086040F28A2048638863C863B2
:1019100008644007006840F001000860704700005C
:10192000001002408FFFFEFFFF8FFFFE3D48006862
:1019300020F040603B4908600846006840F00060C5
:1019400008600846006820F04050086008460068BB
:1019500040F0005008600846006820F040400860F1
:101960000846006840F0004008600846406A20F4DD
:1019700070012C484162406A40F48011294841625C
:10198000406A40F4800127484162406A20F070615B
:1019900024484162406A40F0807122484162406AB6
:1019A00040F080611F484162406A20F070411D484C
:1019B0004162406A40F080511A484162406A40F0FA
:1019C000804118484162406820F400501549486041
:1019D0000846406820F4804048600846406820F48B
:1019E000004048600846806840F0406088600846D3
:1019F000806840F0405088600846806840F0404071
:101A000088600846C06820F04060C8600846C0682A
:101A100020F04050C8600846C06820F04040C860D0
:101A200070470000001000483848006E40F48050B5
:101A3000364908660846006C40F480500864084641
:101A4000006C20F4805008643148006820F04000A9
:101A50002F4908600846006820F480600860084646
:101A6000006820F4004008600846006820F48040C8
:101A700008600846006820F080000860084640685A
:101A800040F4706048600846406820F40060486098
:101A90000846406820F0100048600846006820F0C2
:101AA000020008600846006820F00100086008464F
:101AB000006840F0380008600846006820F0200008
:101AC00008600846006820F4005008600846006876
:101AD00040F0040008600846006840F400700860A8
:101AE0000846406840F0080048600846006840F436
:101AF000807008600846406840F48050486008469E
:101B0000006840F04000086070470000001002408C
:101B1000003001404048006820F00C003E49086059
:101B20000846006840F0080008600846006820F099
:101B3000C00008600846006840F080000860084661
:101B4000006820F4407008600846006840F40070A7
:101B5000086031482030006820F0F0002E49203124
:101B600008600846006840F01000086008460068F9
:101B700040F0400008600846006820F470400860AB
:101B80000846006840F4805008600846006840F449
:101B9000804008600846006820F47020086008460D
:101BA000006840F4803008600846006840F48020F7
:101BB00008601948001D006820F002001649091D40
:101BC00008600846006820F00800086008460068C1
:101BD00020F010000860081D006840F00C00091D8E
:101BE00008600846006840F0C000086008460068C9
:101BF00040F440700860081D006820F00C00091DCA
:101C000008600846006820F0C000086008460068C8
:101C100020F4407008607047000C00483B48806D1D
:101C200040F48040394988650846806B40F4804024
:101C300088630846806B20F48040886334480068DD
:101C400020F04000324908600846006820F48060B7
:101C500008600846006820F40040086008460068F4
:101C600020F4804008600846006820F0800008608A
:101C7000081D006840F47060091D0860084600688F
:101C800020F4006008600846006820F0100008603A
:101C9000081F006820F00200091F0860084600685D
:101CA00020F0010008600846006840F03800086035
:101CB0000846006820F0200008600846006820F40C
:101CC000005008600846006840F0040008600846BC
:101CD000006840F400700860081D006840F00800CB
:101CE000091D0860081F006840F48070091F086023
:101CF000081D006840F48050091D0860081F006836
:101D000040F04000091F08607047000000100240CA
:101D100000380040002105E0002200E0521C122A99
:101D2000FCD3491C8142F7D3704710B50B46002104
:101D300000BF10E000BF846804F00204022CFAD156
:101D40005C5C047300BF846804F00104002CFAD0CA
:101D5000047B5C54491C9142ECDB00BF846804F0B6
:101D60008004802CFAD010BD30B50C46002100BF95
:101D700010E000BF856805F00205022DFAD1655C10
:101D8000057300BF856805F00105002DFAD0057BBD
:101D90005554491C9942ECDB00BF856805F080056D
:101DA000802DFAD030BD000002480068401C014977
:101DB000086070470C00002010B500204FF0E021B3
:101DC00008611D48486100208861401E01210028EB
:101DD00004DB0A07130E194A135406E00A07140E0F
:101DE000174A00F00F031B1FD45400BF4FF0FF3001
:101DF00000280DDB00BF00BF00F01F020121914051
:101E00004209920002F1E022C2F8001100BF00BFB7
:101E100000BF4FF0E020006940F002004FF0E021E9
:101E200008610846006940F004000861084600693E
:101E300040F00100086110BD7F38010000E400E0BF
:101E400018ED00E05E49096821F007015C4A116065
:101E50001146096841F0020111605A49096841F4CC
:101E60008071584A116000BF5649096801F48061C9
:101E70000029F9D010205349496821F0F851514AFE
:101E800051601146496841EA006151601146096894
:101E900021F08071116000BF4A49096801F00071AA
:101EA000B1F1007FF8D04749C96821F00301454AE4
:101EB000D1601146C96841F00201D1601146C9687C
:101EC00021F4FE4141F4A051D1601146C96821F0CE
:101ED000700141F01001D1601146C96821F0C06164
:101EE000D1601146C96841F08071D160114609681E
:101EF00041F08071116000BF3249096801F0007142
:101F00000029F9D02F49896821F003012D4A9160F9
:101F10001146896841F00301916000BF2949896831
:101F200001F00C010C29F9D12649896821F0F00152
:101F3000244A91601146896821F4E061916011465C
:101F4000896821F4605191601146096821F080612F
:101F5000116000BF1B49096801F08061B1F1806F19
:101F6000F8D01849096921F4FE41164A1161114659
:101F7000096941F4C05111611146096941F4003108
:101F800011611146096941F48031116111460968F6
:101F900041F08061116000BF0A49096801F0806169
:101FA0000029F9D007498831096821F44001054A20
:101FB000C2F888101146096E41F40011116670478D
:101FC00000200240001002401E48006820F400007B
:101FD0001C4908600846006840F480000860084614
:101FE000006820F0007008600846006840F08070CB
:101FF00008600846406820F4006048600846406871
:1020000020F4805048600846806840F440008860B2
:102010000846806840F0407088600846C06820F438
:102020004000C8600846C06820F04070C86008469C
:10203000406940F4805048610846406940F40060BF
:10204000486170470010004870B58AB004460E46DB
:10205000154646F0200001900F48406920F480505A
:102060000D4948610A20FFF755FE012302AA01A984
:102070000A48FFF779FE2B4602AA21460748FFF7D8
:1020800073FE0A20FFF746FE0348406940F4805083
:10209000014948610AB070BD00100048003001409D
:1020A00010B50748006E40F0010005490866FFF7CB
:1020B0003DFCFFF7B9FCFFF787FF00F0A9F810BD62
:1020C0000010024010B50648006E40F001000449BF
:1020D0000866FEF7FDFAFEF757FBFEF759FC10BD48
:1020E0000010024030380A2801D201207047002039
:1020F00070474FF08040C06B401E40F27121884213
:1021000006D80846810748638863C863086412E0FC
:102110004FF08040406B401F4FF0804148630846BD
:10212000806B401F88630846C06B401FC863084629
:10213000006C401F08647047054A116800BF044ADC
:102140001268521A8242FAD30022014B1A60704779
:102150000C0000204FF08040C06B401C40F2523118
:10216000884206D30846410748638863C863086409
:1021700012E04FF08040406B401D4FF080414863BB
:102180000846806B401D88630846C06B401DC863CD
:102190000846006C401D0864704700001CB5FFF73E
:1021A00051FEFFF709FEFFF789FAFEF7D1FDFEF7B2
:1021B0000FFCFFF787FFFEF779FAFFF771FF0020AA
:1021C0000190042500241FE0294601A800F048F8EA
:1021D00000249DF8070044EA00649DF8060044EAE4
:1021E00000449DF8050044EA00249DF804000443DF
:1021F000224606A16846FEF75DF86846FEF77AFDBE
:102200004FF47A70FFF798FFDEE7000025640000C6
:1022100008B503200090012226216846FFF714FF2D
:1022200002200090012225216846FFF70DFF0420BF
:10223000009001223D216846FFF706FF3F200090F5
:1022400001223C216846FFF7FFFE0B20009001228F
:1022500020216846FFF7F8FE0220FFF76DFF08BD5A
:1022600030B589B004460D461948406920F4006035
:10227000174948610A20FFF74DFD1548406920F4D1
:102280008050134948610A20FFF744FD6120009007
:10229000012301AA69460F48FFF766FD2A46214639
:1022A0000C48FFF742FD0A20FFF734FD084840695B
:1022B00040F48050064948610A20FFF72BFD04488E
:1022C000406940F400600249486109B030BD000037
:1022D00000100048003001404FF04070E1EE100A5D
:1022E000704700FE1467001D1447009D009C003FCE
:1022F00000FA1400005341980019485A095A005F27
:1023000000FC015F01FC00AF1404005BC018815A9F
:10231000C9005800C005005F004200F5006700EAF0
:1023200000AF00BF004600FF00EF00004C23000894
:102330000000002014000000C40100086023000811
:102340001400002064060000E00100080000800284
:10235000000000000000000000000000000000007D
:040000050800018965
:00000001FF
