:020000040800F2
:1000000078060020490200088502000887020008DF
:10001000890200088B0200088D0200080000000021
:100020000000000000000000000000008F02000837
:10003000910200080000000093020008352B000820
:10004000970200089702000897020008970200082C
:100050009702000897020008F1130008091400082D
:1000600021140008391400089702000897020008BC
:1000700097020008970200089702000897020008FC
:1000800097020008970200089702000897020008EC
:100090009702000897020008970200086114000800
:1000A00097020008970200089702000897020008CC
:1000B00097020008970200089702000897020008BC
:1000C00097020008970200089702000897020008AC
:1000D000970200089702000897020008970200089C
:1000E000970200089702000897020008970200088C
:1000F000970200089702000897020008970200087C
:10010000970200089702000897020008970200086B
:10011000970200089702000897020008970200085B
:10012000970200089702000897020008970200084B
:10013000970200089702000897020008970200083B
:10014000970200089702000897020008970200082B
:10015000970200089702000897020008970200081B
:10016000970200089702000897020008970200080B
:10017000970200089702000897020008000000009C
:10018000970200089702000800F002F800F04CF80F
:100190000AA090E8000C82448344AAF10107DA45E2
:1001A00001D100F041F8AFF2090EBAE80F0013F0E8
:1001B000010F18BFFB1A43F001031847EC3500008C
:1001C0000C360000103A24BF78C878C1FAD852071C
:1001D00024BF30C830C144BF04680C6070470000C1
:1001E0000023002400250026103A28BF78C1FBD840
:1001F000520728BF30C148BF0B607047662903F023
:100200004E82782900F07680002070471FB503F0F9
:100210003CFA00F0AFFB04000020002102F012FFC6
:10022000E0601FBD10B510BD00F0A4FC1146FFF743
:10023000EDFF02F087FE00F0C2FC03B4FFF7F2FF0F
:1002400003BC00F005FD000016481749174B994202
:100250003CBF50F8042B41F8042BF8D314494FF05D
:1002600000028B4238BF43F8042BFAD3DFF8440076
:10027000016841F470010160BFF34F8FBFF36F8FCE
:100280000D480047FEE7FEE7FEE7FEE7FEE7FEE774
:10029000FEE7FEE7FEE7FEE708480949094A0A4B80
:1002A00070470000E4370008000000201400002020
:1002B0007806002088ED00E0890100087800002021
:1002C0007806002078020020780200200FB41CB5C8
:1002D000074B06AA7B4469460090059800F031FB65
:1002E0000020694600F040FB1CBC5DF814FB0000D8
:1002F0009106000070B504460D4621461068AFF324
:1003000000802188090502D50F4A7A4402E00E4A8E
:100310007A440E32002104F1240305E000F00F06B8
:100320000009965D5E54491C0028F7D1207800230F
:10033000000704D5702D02D009B1022311322046E6
:10034000BDE8704000F08CB8DC3300002DE9F047C8
:100350004FF0000A89460446C0F820A02046E16814
:100360008847002876D0252806D0D4E90121904777
:10037000206A401C2062F1E7E1682046002588479A
:10038000C4F81CA006460027C4F818A02A2E09D0DD
:10039000304602F063FD38B304EB8708303EC8F8FE
:1003A000186019E059F8041B204604EB870291619C
:1003B000E1688847012F064618D1E069002820DA55
:1003C00025F020051DE0D8F8180000EB800006EBB2
:1003D00040003038C8F818002046E16888470646D3
:1003E00002F03CFD0028EED1012F0AD02E2E08D1BC
:1003F0002046E16888477F1C0646022F45F020050D
:10040000C4DBA069002803DA404245F00105A06181
:10041000E80701D025F01005B6B1A6F14100192872
:1004200002D8203645F400654A463146204625600C
:100430004D46FFF7E3FE58B1012806D0ED1D25F02B
:10044000070000F1080989E704E005F1040985E7E0
:1004500030468AE7206ABDE8F087704770477047EA
:100460002DE9F0470D4699469246044600F12408CE
:100470000168880604D5E06921F01001216000E0E0
:100480000120A84201DD471B00E00027A1697A197D
:1004900002EB0900081AA0612078C00602D42046A9
:1004A000AFF30080002608E0D4E901211AF8060025
:1004B0009047206A401C761C20624E45F4DB207871
:1004C000C0060AD52046AFF3008006E0D4E901213A
:1004D00030209047206A401C2062381EA7F1010797
:1004E000F4DC07E0D4E9012118F805009047206A00
:1004F000401C2062281EA5F10105F3DC2046AFF365
:1005000000802078000602D50220BDE8F087012097
:10051000FBE770472DE9FF4F0C461E464FF0FF37B3
:100520008BB0D2E90001DDF860800A908A46C1F301
:100530000A5505B93D46002108464FF00000BAF1C2
:10054000000F00F4400005DA00EB80004FF440019A
:1005500001EA50004FEA9059B9F1010F00DDB946A8
:100560000A9850EA4A000ED044F61050A5F2FF3522
:1005700045432F14B8F1000F1ED07542291E1EDD11
:10058000C9F100021CE0B8F1010F4FF0000001D0EA
:10059000302103E0F24305E02154401CB042FBDB74
:1005A00030460022002121540B99C1F80880C1E98E
:1005B00000200FB000F0BCB9BD1B6D1CDEE74A4641
:1005C00000DA694206A800F05FFA06AB93E807007C
:1005D00003AB83E8070050460A9900F040FB8DE822
:1005E0000700A0F500501F3800900398002D0ADD89
:1005F00042F21F014A460844002303A903906846BB
:1006000000F0A9FD09E0A0F500504A461F3800237C
:1006100003A90390684600F0B3FD8DE807000004CD
:10062000000C03D04FF0FF30410800E01046B8F155
:10063000000F03D00022009215461EE0751E05D45F
:1006400000F09CF9303262556D1EF9D5B346012297
:10065000084302D000227F1C04E02078302801D11A
:1006600000227F1E002A099784D01DE0112D07DA91
:1006700000F084F9303262556D1C50EA0102F5D168
:10068000084302D00098C8B10EE00021681E05E0C2
:10069000235C625C63542254401E491C8142F7DB98
:1006A000AB46A81B401E0990002004F80B000B98D5
:1006B000099AC0F80880C0E9002B7AE711264FF0AC
:1006C000000857E72DE9F04F88460446D21D22F076
:1006D000070191B0D1E90001CDE90A0102F0A6FBC2
:1006E00002460B98C00F01D02D2007E0206881073B
:1006F00001D52B2002E0202101EAC000032A099045
:1007000001D0072A05DB03464146204600F07CF96C
:100710000BE12078800601D5E06900E00620B8F101
:10072000650F814606D0B8F1660F18D0B8F1670F93
:1007300070D131E00020B9F1110F009001DB1123DD
:1007400001E009F101030AAA01A90CA8FFF7E2FEE2
:10075000DDE90C70002609F10105834647E0012020
:100760004B4600904FF000470AAA01A90CA8FFF7DA
:10077000D1FEDDE90DB00C995D46002610B909F1F6
:1007800001000D18B9EB050003D4C0F1FF3609F1E3
:100790000105A5EB09002BE0B9F1010F01DA4FF0DB
:1007A00001090020B9F1110F0090484601DD112325
:1007B00000E003460AAA01A90CA8FFF7ABFEDDE999
:1007C0000C704D4600268346207800070AD4AB45BE
:1007D00000DA5D4601A8012D04DD411911F8011C64
:1007E000302907D04F4502DA17F1040F04DA01204F
:1007F00082460FE06D1EEEE7002F02DCED1B3E444B
:1008000003E0781CA84200DD7D1CB81B00F1010A42
:100810004FF000472078000703D4AA4501DB4FF0D2
:10082000FF3A0021B7F1004F0DF143088DF8431056
:1008300024D002202B23002F01DA7F422D230A210E
:10084000021EA0F1010000DC5FB197FBF1FC97FBF9
:10085000F1F201FB1C7C17460CF1300C08F801CDBD
:10086000EEE7A8F1010003702188090501D54521B3
:1008700000E06521A0F1010800F8011C09980FA90A
:10088000A1EB0807FF1D00B10120411901EBEA703F
:10089000A1693844081A401EA0612078C00602D41D
:1008A0002046AFF30080099828B1D4E90121904790
:1008B000206A401C20622078C00622D52046AFF373
:1008C00000801EE0002E04DBB34502DD01A8805D40
:1008D00000E03020D4E901219047206A401C2062CA
:1008E000761CAAF101005FEA000A0AD100F042F882
:1008F000C0680168405CD4E901219047206A401C2F
:100900002062281EA5F10105DCDC07E0D4E9012105
:1009100018F8010B9047206A401C2062381EA7F18E
:100920000107F3DC2046AFF30080032011B041E65D
:1009300030BCBDE8C08F000001694A1C0261087824
:10094000704700B58FB0CDE901310021059105490F
:100950007944CDE9031011466846FFF7F7FC0FB064
:1009600000BD0000E5FFFFFF0A6802F8010B0A6006
:1009700070470000004870473400002030B5B0F1E7
:100980000A024FEA900E71F100034EEA817EB0EB4D
:100990000E0061EB91014FEA101E4EEA017E10EB52
:1009A0000E0041EB11114FEA102E4EEA016E10EBD2
:1009B0000E0041EB11214FEA104E4EEA014E10EBB2
:1009C0000E0041EB1141401841F100014FEAD00007
:1009D00040EA41704FEAD10110EB80054FEA8104F3
:1009E00044EA907444EB01046D1944EB0404521B77
:1009F000A3414FF0000348BF0A3200D530BD401C70
:100A000041F1000130BD00002DE9F0411F460446D0
:100A100003260168072A01F4006004DB08B116A56B
:100A200005E016A503E008B115A500E015A521F025
:100A300010002060A069C01EA0610FB1401EA0611F
:100A40002046AFF300804FB1D4E9012138469047EA
:100A5000206A401C2062C01C206206E0206AFAE77F
:100A6000D4E9012115F8010B9047761EF8D22046F3
:100A7000AFF30080BDE8F0814E414E006E616E0024
:100A8000494E4600696E66002DE9F04781461646DC
:100A90008AB0354878440DC88DE80D003248784456
:100AA000801C03AC0DC884E80D0041F69B3008445F
:100AB000372190FBF1F290FBF1F5A5F1800501FBE8
:100AC00012041B3C02D56442012000E00020DFF844
:100AD00098A080460027FA44AAF1BE0A0EE0E0077B
:100AE0000AD03246684607EB470101230AEB810131
:100AF00000F046FB8DE8070064107F1C002CEED14F
:100B0000194F7F44AE3F19E0E80715D007EB0410FA
:100B10000DF1180A90E80E008AE80E00C068F04255
:100B200001D1981908903246012306A903A800F0C4
:100B300027FB03AB83E807006D10641C002DE3D195
:100B40004FF0010332466946B8F1000F03A802D006
:100B500000F001FB01E000F013FBC9E90001C9F856
:100B600008200AB0BDE8F087F82C00000048704764
:100B7000140000207546FFF7F9FFAE4605006946F0
:100B8000534620F00700854618B020B5FFF784FBD8
:100B9000BDE820404FF000064FF000074FF000087E
:100BA0004FF0000B21F00701AC46ACE8C009ACE8FF
:100BB000C009ACE8C009ACE8C0098D46704710B563
:100BC0000446AFF300802046BDE81040FFF735BB78
:100BD0004FF0013C50F8042B51F8043B9A4221D1CC
:100BE000A2EB0C03934313EACC1317D150F8042B58
:100BF00051F8043B9A4215D1A2EB0C03934313EA3C
:100C0000CC130BD150F8042B51F8043B9A4209D174
:100C1000A2EB0C03934313EACC13DBD04FF000009C
:100C2000704700BFD01A01BAB1FA81F101F0180182
:100C300022FA01F0CB40C1F12001DBB2C0B2C01AF0
:100C40002CFA01F3D11A914311EAC311E6D170478E
:100C500001491820ABBEFEE72600020070475FEA9C
:100C6000400C08BF91F0000F4FEA8C234FEAC122DD
:100C700043EA51514FEA1C5018BF00F5F0404FEACB
:100C8000300018BF41F000415FEA6C5C00F0298041
:100C9000BCF1FF3F08BF40F080407047130C06BF17
:100CA00012044FF0100C4FF0000C130E04BF120290
:100CB0000CF1080C130F04BF12010CF1040C930F7C
:100CC00004BF92000CF1020CD30F04BF52000CF1D0
:100CD000010C11464FF00002A0F11F00A0EB0C0028
:100CE000704711F0004F08BF704731F000413FF4EA
:100CF000D5AF0B0C06BF09044FF0100C4FF0000CE1
:100D00000B0E04BF09020CF1080C0B0F04BF090104
:100D10000CF1040C8B0F04BF89000CF1020CCB0FFB
:100D200004BF49000CF1010CCCF12003A0EB0C0036
:100D300022FA03F302FA0CF241EA030100F1010086
:100D4000704720F07F4C80EA030023F07F47ACEB34
:100D5000070303F57C5300F0004003F1FF032DE986
:100D600080494FEA154B09B44FEA144325EA0B4E6C
:100D700024EA03480FF2042606EB132749083E78BD
:100D80005FEA320203FB0667C7F5000707FB06F6BA
:100D90004FEA54374FEAD64606F1020607FB066CC7
:100DA000CCF1005C4FEA1C472CEA074C07FB06F429
:100DB0000CFB06F504EB15464FEA961634BF0020EF
:100DC0004FF000404FEAD13706FB07FC4FEA1C4CBE
:100DD0000CFB0BF7D21B03FB0CF761EB07010CFBC1
:100DE0000EF7B0EB074072EB17420CFB08F734BF6D
:100DF000A2EB0742B2EB074261EB17414FEA0C440A
:100E00004FEA910706FB07FC4FEA1C4C0CFB0BF763
:100E1000B0EBC74072EB573203FB0CF734BFA2EBC9
:100E2000C742B2EBC74261EB57310CFB0EF7B0EB98
:100E3000C70072EB57720CFB08F734BFA2EBC70276
:100E4000B2EBC70261EB5771039F4FEA816141EA40
:100E5000921104EBCC044FEAD1374FEA826206FBD1
:100E600007FC42EA90124FEA80604FEA1C4C0CFBF0
:100E70000BF7D21B03FB0CF761EB07010CFB0EF722
:100E8000B0EB074072EB17420CFB08F734BFA2EB44
:100E90000742B2EB074261EB17414FEA8C554FEA2C
:100EA000910704EB9C2406FB07FC4FEA1C4C0CFB4F
:100EB0000BF7B0EBC74072EB573203FB0CF734BFB4
:100EC000A2EBC742B2EBC74261EB57310CFB0EF706
:100ED000B0EBC70072EB57720CFB08F734BFA2EB04
:100EE000C702B2EBC70261EB577115EB4C254FEA15
:100EF000816141EA92114FEA82624FEAD13742EAB8
:100F0000901206FB07FC44F100044FEA80604FEAB0
:100F10001C4C0CFB0BF7D21B03FB0CF761EB07011E
:100F20000CFB0EF7B0EB074072EB17420CFB08F717
:100F300034BFA2EB0742B2EB074261EB174115EB5E
:100F40001C154FEA813141EA92414FEA823242EA6E
:100F500090424FEA80304FEA0C7644F1000448EAB0
:100F600003434EEA0B484FF0000EB2EB080C71EB56
:100F7000030724BF624639464EEB0E0E4FF0000BBE
:100F80000018524149414BEB0B0BB2EB080C71EBD3
:100F900003077BF1000B24BF624639464EEB0E0E71
:100FA0004FF0000B0018524149414BEB0B0BB2EBD9
:100FB000080C71EB03077BF1000B24BF6246394636
:100FC0004EEB0E0E51EA020718BF46F0010616EB73
:100FD0000E7655F1000254F1000103D5BDE88901F8
:100FE000BDE80088BDE88901BDE80048B619524156
:100FF00041EB0101A3F10103704780807F7E7D7C7E
:101000007B7A7978777676757473727171706F6E9A
:101010006E6D6C6C6B6A6A69686867666665646445
:10102000636362616160605F5F5E5E5D5D5C5C5BCF
:101030005B5A5A595958585757565655555554543E
:10104000535352525251515050504F4F4F4E4E4D9C
:101050004D4D4C4C4C4B4B4B4A4A4A4949494848E8
:101060004847474747464646454545444444444328
:1010700043434342424242414141002B9C4630D4CB
:1010800077002BD01CB54FEA370703B44FF01000A0
:101090004FF01001BAF1000F06D0BCF1000FDCBF19
:1010A00040F0080040F008014FF000000FBCBDE820
:1010B00010400BF1010BBBF1010F08BF5FEA1707EE
:1010C00022BF12F1010211F101014FF0004143F181
:1010D000000300F0004043EA00007047F9D35708CE
:1010E000D0E746EA064613F1400F4FEA16461FDDE9
:1010F00013F1200FDFBF16430A46002120335B4265
:10110000BED0C3F1200746EA064602FA07F74FEAC7
:10111000164646EA0706C3F1200722FA03F201FA4F
:1011200007F721FA03F14FF0000342EA0702A7E7AD
:1011300046EA020646EA06464FEA164646EA01062F
:10114000BCBF46EA0646360C4FF000034FF00002E3
:101150004FF0000194E72DE9804C9A46934670B415
:1011600091E8380007C831EA400C48BF34EA430C24
:1011700003D5FFF7E6FDFFF780FFF0BCBDE8008C6C
:101180002DE9804C9A46934670B491E8380007C820
:1011900010F0804F08BF13F0804F03D100F005F826
:1011A000FFF76BFFF0BCBDE8008C20F07F4780EAC2
:1011B000030023F07F4C07EB0C03A3F57C5300F0F6
:1011C0000040A3F1FE0392F0000F00F0B38095F011
:1011D000000F00F077802DE901494FEA11404FEAF6
:1011E000144621EA004800FB06FC24EA064708FBF7
:1011F00006F607FB08F800FB07F718EB06484CEB70
:10120000164C4FEA124B18EB07484FEA15464CEBC9
:10121000174022EA0B4E0BFB06FC25EA06470EFBA5
:1012200006F607FB0EFE0BFB07F71EEB064E4CEB1C
:10123000164C4FF000061EEB074E4CEB174B18EB0D
:101240000B0840F1000018EB0E0B58EB000840F1C2
:1012500000008F1A4FF000013CBFC943661B14BF4A
:10126000B5EB040C00213CBFC943F61B4FEA174401
:101270004EEA8E0E27EA04454FEA1C4704FB07623C
:101280002CEA074C05FB07F70CFB05F604FB0CFCEE
:1012900016EB074642EB174216EB0C4642EB1C429C
:1012A0001BEB060658EB0202414146EA9E0601D5B9
:1012B000BDE80189B619524141EB0101A3F10103D7
:1012C000BDE801894FEA14454FEA114724EA054673
:1012D00021EA074C05FB07F406FB07F70CFB06F1B8
:1012E00005FB0CFC11EB074144EB17444FEA124796
:1012F00011EB0C4144EB1C4422EA074C05FB07F2BE
:1013000006FB07F70CFB06F605FB0CFC16EB074685
:1013100042EB174216EB0C4642EB1C456A1854F19F
:10132000000148BF7047B619524141EB0101A3F1DA
:101330000103704795F0000F37D04FEA11424FEA92
:10134000144721EA024624EA074C02FB07F106FB98
:1013500007F70CFB06F402FB0CFC14EB074441EB13
:1013600017414FEA154714EB0C4441EB1C4125EAA9
:10137000074C02FB07F506FB07F70CFB06F602FB22
:101380000CFC16EB074645EB174516EB0C4645EBF8
:101390001C42121951F1000148BF7047B619524161
:1013A00041EB0101A3F1010370474FEA14454FEAF5
:1013B000114724EA054621EA074C05FB07F106FB25
:1013C00007F70CFB06F24FF0000605FB0CFC12EBD6
:1013D000074241EB174112EB0C4251EB1C4148BF55
:1013E0007047921841EB0101A3F10103704700001F
:1013F00010B50448006840F001000249086001F09F
:1014000098FD10BD1404014010B50448006840F078
:1014100002000249086000F0E3F910BD1404014025
:1014200010B50448006840F004000249086001F06B
:10143000E9FC10BD1404014010B50748006840F0F5
:1014400008000549086001F051FD00F029FA03A0E9
:1014500000F0B8FB10BD00001404014075700000DE
:1014600010B50748006840F020000549086001F009
:101470000BFD00F015FA03A000F0A4FB10BD000066
:1014800014040140646F776E000000002F48C06CA8
:1014900040F002002D49C8642D48006820F44050F7
:1014A0002B4908600846006840F400500860084670
:1014B000006820F4404008600846006840F400409E
:1014C000086023482030006820F0706020492031F7
:1014D00008600846006840F08060086008460068C0
:1014E00020F0704008600846006840F080400860C6
:1014F0001748001D006840F040001549091D0860AC
:101500000846006840F080000860081D006840F44C
:101510004050091D08600846006840F440400860DB
:10152000081D006820F44050091D08600846006846
:1015300040F4805008600846006820F4404008608D
:101540000846006840F48040086070470010024080
:101550000004004852204749896D41F40011454A72
:10156000916544498831096821F44051C2F88810D6
:101570001146D1F8881041F48051C2F88810114604
:10158000896B41F4001191631146896B21F40011BC
:1015900091633949096821F00101374A1160114608
:1015A000096821F4805111601146096821F47061C5
:1015B00011601146096841F0800111601146096807
:1015C00021F400311160111D096821F40061121D20
:1015D00011601146096841F00071116011460968F7
:1015E00041F4004111600021234A1032116011467C
:1015F000096841F0E04111601146096841F0A071AD
:1016000011601146096841F4803111601146096882
:1016100041F4206111601146096841F01401116024
:1016200015490831096821F40041134A0832116054
:10163000111D096821F40041121D1160111F096874
:1016400021F48061121F1160114609686FF30901CE
:1016500011601146096841EA4001116011460968AC
:1016600041F4004111600449096841F00101024A56
:101670001160704700100240005400402DE9F04115
:101680000446884617461D46002D00DD1FB94FF061
:10169000FF30BDE8F081204600F085F801232A469E
:1016A0004146204600F056F8002608E000BFA06939
:1016B00000F004000028FAD0606AB855761CAE42EB
:1016C000F4DB00BFA06900F040000028FAD02046FB
:1016D00000F05EF80020DCE72DE9F0410446884682
:1016E00017461D46002D00DD1FB94FF0FF30BDE845
:1016F000F081204600F057F800232A464146204654
:1017000000F028F8002802DA4FF0FF30EFE700265B
:1017100008E000BFA06900F002000028FAD0B85D20
:10172000A062761CAE42F4DB00BFA06900F040006E
:1017300020B9A06900F010000028F6D0A06900F0E0
:10174000100010B14FF0FF30D1E7204600F020F834
:101750000020CCE770B504460D46002161680B48B7
:101760000140012B02D141F4806101E021F480614C
:10177000C5F309004FF47F0606EA024630430143F1
:1017800041F400516160002070BD0000009800FC31
:10179000416841F48041416000BF816901F020014E
:1017A0000029FAD0704700BF816901F40041B1F50A
:1017B000004FF9D07047000010B5FFF767FEFFF744
:1017C000C9FE0123034A044801780448FFF784FF57
:1017D00010BD000003000020020000200054004063
:1017E00010B52DED068B0223214A224801782248AC
:1017F000FFF744FF1E4800782049098841EA00208D
:101800001E4908801A484078098808431B49088007
:101810000846008801F0B6FD41EC1A0B9FED180B4D
:1018200053EC102B01F0C2FD41EC190B9FED160B90
:1018300053EC102B01F04EFC41EC180B01F018FC9E
:101840001349086000200D4908801148006801F024
:10185000ABFE41EC180B53EC182B0EA10F48FEF712
:1018600035FD0E4800F0AEF9BDEC068B10BD000052
:101870000400002002000020005400400600002068
:10188000000000000000F43F0000000000408F4016
:1018900008000020252E3266000000000000002015
:1018A000002000BF0B49096801F004010029F9D1AB
:1018B000002006E0002207490C3141F82020411C9D
:1018C000C8B20F28F6DD0349096841F00401014A56
:1018D00011607047082400402F48806D00F0805050
:1018E00028B92D48806D40F080502B4988652A48E2
:1018F000806D2A48006800F4807060B9274800684D
:1019000040F480702549086000BF2448006800F456
:1019100080700028F9D020489030006820F0050041
:101920001D49C1F890000846D0F8900040F480307E
:10193000C1F890000846D0F8900020F48030C1F83B
:10194000900007E014489030006840F00100124910
:10195000C1F8900010489030006800F002000028A4
:10196000F0D00D489030006820F440700A49C1F86A
:1019700090000846D0F8900040F48070C1F89000C4
:101980000846806D20F0805088650846806D40F4E0
:101990000070886570470000001002400070004031
:1019A0003E48006820F001003C490860081D0068BE
:1019B00040F47010091D08600846006820F070703F
:1019C00008600846006820F4403008600846006857
:1019D00020F4604008600846006840F480400860D9
:1019E0000846006840F0700008600846006820F46F
:1019F000E05008600846006840F4A05008600846BF
:101A0000006820F0700008600846006840F0400060
:101A1000086000BF21480830006800F0200000285E
:101A2000F8D01E48006820F01C001C4908600846D9
:101A3000006840F00C0008600846006820F0600074
:101A400008600846006840F04000086008460068EA
:101A500020F0800008600846006820F0020008605E
:101A60000846006840F00100086000BF0B480830DD
:101A7000006800F001000028F8D000BF07480830D7
:101A8000006800F010000028F8D004480830006812
:101A900040F004000149083108607047002400400C
:101AA000F0B50C4615460021002600220778332F9A
:101AB00048D00FDCA7F12007132F50D2DFE807F042
:101AC0001F4F4F4F4F394F4F242621344F314F373F
:101AD0003F404100392F3BD008DCA7F13407052FE8
:101AE0003DD2DFE807F0303132333400642F0FD0BD
:101AF0006D2F10D06E2F11D0FF2F30D11CE00021A0
:101B000046E04AF2DD0143E0282141E011213FE0B7
:101B10004FF473413CE04BF2102139E042F21021C6
:101B200036E04FF4204133E04AF2140130E0C021A6
:101B30002EE04FF433412BE04FF6DD7128E000BF7B
:101B400000BF00BF00BF00BF00BF00BF00BF00BF9D
:101B50000778303FDFF864C03CF8171018E00778CA
:101B60005B2F08DA0778402F05DD0778413FDFF863
:101B700050C03CF8171007787B2F08DA0778602FE1
:101B800005DD0778613FDFF838C03CF8171000BF6B
:101B900000BF0CB141F002010DB141F020010C2653
:101BA000002208E041FA06F707F00F079F54371F9D
:101BB000FEB2571CFAB2042AF4DBF0BDD636000898
:101BC000A23600082DE9F041044600250026002732
:101BD00020E060783A2801D1012600E000266078F4
:101BE0002E2801D1012700E000270EB1012000E0DE
:101BF000002002460FB1012000E0002001462B46E4
:101C0000204600F0F1F8641C06B1641C07B1641CA6
:101C1000681CC5B2207808B1062DDADBBDE8F0817A
:101C200000B500F007F8FFF757FEFFF7B9FEFFF722
:101C300037FE00BD5E48C06C40F00F005C49C864D0
:101C40004FF0904000685B4908404FF090410860B9
:101C500008460068584908434FF09041086008461C
:101C6000006A40F03B4008620846406A5349084316
:101C70004FF090414862084680684E4908404FF056
:101C800090418860084680684B4908434FF0904176
:101C900088600846C068474908404FF09041C860D6
:101CA00047480068474908404549086008460068B9
:101CB000454908434249086041482030006840F0E7
:101CC000BB103F49203108603D48406A3F49084306
:101CD0003B4948623A48083000683A490840384968
:101CE000083108600846006837490843344908311C
:101CF0000860081D00683349084031490C3108600C
:101D00003348006833490840314908600846006894
:101D1000314908432E4908602D48203000682F497A
:101D200008432B49203108602948406A40F00B01E4
:101D3000274841622648083000682649084024495F
:101D400008310860084600682349084320490831E3
:101D50000860081D00681F4908401D490C310860D3
:101D60001F48006880B21E490860084600681D4987
:101D700008431B4908600846406A40F0BB311848D8
:101D800041621748083000686FF30F0014490831AA
:101D90000860084600681349084311490831086083
:101DA000081D00686FF30F00091D086070470000F0
:101DB00000100240FF0FC03F00A02A80BB0B00B004
:101DC00000040048F0F0F3000A0A08AAB000BBBB08
:101DD000000800483F00FCFF80AA020000B0BBBB27
:101DE000000C00480000AAAAF8B505460E461746A2
:101DF0001C466B463A4631462846FFF751FE00BF67
:101E0000FE48006800F004000028F9D1062C7DD2BD
:101E1000DFE804F00398FCFBFAF9F8480C3000689E
:101E2000F7490840F5490C310860F4480838C069A2
:101E3000F3490840F1490839C8610846406AF04949
:101E40000840EE49083948620846C06AEC49084033
:101E5000EA490839C8629DF80000C007C00E9DF825
:101E60000010C1F3400140EAC1509DF80010C1F3D9
:101E7000800140EA81509DF80010C1F3C00140EAA2
:101E8000C100DE490C3109680843DC490C310860A7
:101E90009DF80100C007C00E9DF80110C1F340017C
:101EA00040EAC1509DF80110C1F3800140EA815021
:101EB0009DF80110C1F3C00140EAC100CF490839C3
:101EC000C9690843CD490839C8619DF80200C007B7
:101ED000C00E9DF80210C1F3400140EAC1509DF8C8
:101EE0000210C1F3800140EA81509DF80210C1F355
:101EF000C00140EAC100C1490839496A0843BF49E5
:101F0000083948629DF80300C00700E02EE3C00EC8
:101F10009DF80310C1F3400140EAC1509DF8031041
:101F2000C1F3800140EA81509DF80310C1F3C00164
:101F300040EAC100B1490839C96A0843AF490839C4
:101F4000C86214E3AD480C30006843F26001884376
:101F5000AA490C310860A9480838C06943F26001F9
:101F60008843A6490839C8610846406A43F26001BF
:101F70008843A249083948620846C06A43F26001B2
:101F800088439E490839C8629DF80000C007400E8A
:101F90009DF80010C1F3400140EA41309DF8001067
:101FA000C1F3800140EA01309DF80010C1F3C00187
:101FB00040EA411091490C31096808438F490C31BE
:101FC00008609DF80100C007400E9DF80110C1F3A4
:101FD000400140EA41309DF80110C1F3800140EA20
:101FE00001309DF80110C1F3C00140EA411083495E
:101FF0000839C969084381490839C8619DF8020058
:10200000C007400E03E028E27CE1CAE036E09DF81C
:102010000210C1F3400140EA41309DF80210C1F3C3
:10202000800140EA01309DF80210C1F3C00140EA8E
:10203000411072490839496A0843704908394862B1
:102040009DF80300C007400E9DF80310C1F3400146
:1020500040EA41309DF80310C1F3800140EA0130AD
:102060009DF80310C1F3C00140EA411063490839EB
:10207000C96A084361490839C86278E25F480C3090
:102080000068604908405D490C3108605B480838C9
:10209000C0695C49084059490839C8610846406A26
:1020A000584908405549083948620846C06A5549A8
:1020B000084052490839C8629DF80000C007000C6A
:1020C0009DF80010C1F3400140EA41709DF80010F6
:1020D000C1F3800140EA01709DF80010C1F3C00116
:1020E00040EA813045490C310968084343490C31C5
:1020F00008609DF80100C007000C9DF80110C1F3B5
:10210000400140EA41709DF80110C1F3800140EAAE
:1021100001709DF80110C1F3C00140EA81303749D8
:102120000839C969084335490839C8619DF8020072
:10213000C007000C9DF80210C1F3400140EA417055
:102140009DF80210C1F3800140EA01709DF8021071
:10215000C1F3C00140EA813028490839496A08437F
:102160002649083948629DF80300C007000C9DF815
:102170000310C1F3400140EA41709DF80310C1F320
:10218000800140EA01709DF80310C1F3C00140EAEC
:1021900081301A490839C96A084318490839C862A0
:1021A000E5E116480C30006820F0404013490C313E
:1021B000086012480838806920F003010F48083889
:1021C0008161C06920F040410C480838C161006A53
:1021D00020F00301094808380162406A20F04041BC
:1021E000064808384162806A20F003010348083835
:1021F0008162C06A20F04041004805E008240040A8
:10220000E7FF3FFFFF3FFFCF0838C162006B20F0C0
:102210000301DC4801639DF80000C0079DF8001031
:10222000C1F3C00140EA8170D649143109680843FE
:10223000D449143108609DF80000C0F380009DF877
:102240000010C1F3400140EA4100CE4989690843CA
:10225000CC4988619DF80100C0079DF80110C1F3C9
:10226000C00140EA8170C749C9690843C549C861CE
:102270009DF80100C0F380009DF80110C1F34001FA
:1022800040EA4100BF49096A0843BE4908629DF817
:102290000200C0079DF80210C1F3C00140EA81703E
:1022A000B849496A0843B74948629DF80200C0F33B
:1022B00080009DF80210C1F3400140EA4100B1499D
:1022C000896A0843AF4988629DF80300C0079DF8FA
:1022D0000310C1F3C00140EA8170AA49C96A0843EA
:1022E000A849C8629DF80300C0F380009DF8031060
:1022F000C1F3400140EA4100A249096B0843A149EA
:10230000086334E19F481430006820F040709D4914
:10231000143108609B48806920F00C019948816164
:10232000C06920F040719748C161006A20F00C013B
:1023300094480162406A20F0407192484162806A8C
:1023400020F00C018F488162C06A20F040718D48F6
:10235000C162006B20F00C018A4801639DF8000007
:10236000C0F3400040069DF80010C1F3800140EA30
:1023700001608449143109680843824914310860B6
:102380009DF80000C007000F9DF80010C1F3C001C8
:1023900040EA81007B49896908437A4988619DF850
:1023A0000100C0F3400040069DF80110C1F3800118
:1023B00040EA01607349C96908437249C8619DF8E0
:1023C0000100C007000F9DF80110C1F3C00140EAF1
:1023D00081006C49096A08436A4908629DF8020055
:1023E000C0F3400040069DF80210C1F3800140EAAE
:1023F00001606449496A0843624948629DF80200E5
:10240000C007000F9DF80210C1F3C00140EA81002F
:102410005C49896A08435B4988629DF80300C0F300
:10242000400040069DF80310C1F3800140EA0160BE
:102430005449C96A08435349C8629DF80300C0075C
:10244000000F9DF80310C1F3C00140EA81004D491F
:10245000096B08434B49086389E04A481430006817
:10246000494908404749143108604648C06946490F
:1024700008404449C8610846406A43490840414908
:1024800048620846C06A404908403E49C8629DF813
:102490000000C007800B9DF80010C1F3400140EA26
:1024A00001209DF80010C1F3800140EA41209DF811
:1024B0000010C1F3C00140EA81603249143109685B
:1024C00008433049143108609DF80100C007800BB3
:1024D0009DF80110C1F3400140EA01209DF8011070
:1024E000C1F3800140EA41209DF80110C1F3C00111
:1024F00040EA81602349C96908432249C8619DF8BF
:102500000200C007800B9DF80210C1F3400140EAB1
:1025100001209DF80210C1F3800140EA41209DF89E
:102520000210C1F3C00140EA81601649496A0843BC
:10253000144948629DF80300C007800B9DF8031002
:10254000C1F3400140EA01209DF80310C1F380016E
:1025500040EA41209DF80310C1F3C00140EA8160C8
:102560000849C96A08430749C86200E000BF00BFC4
:1025700004480830006840F004000249083108604F
:10258000F8BD000000240040FFFCFDFB9848C06C33
:1025900040F001009649C8640846806D40F0010093
:1025A00088654FF09040006840F400604FF0904123
:1025B00008600846006820F48060086008460068EB
:1025C00040F0080008600846006820F00400086039
:1025D0000846006840F0200008600846006820F0C7
:1025E000100008600846006840F080000860084657
:1025F000006820F0400008600846806840F44060B1
:1026000088600846806840F00C0088600846806852
:1026100040F0300088600846806840F0C000886064
:102620000846C06820F44060C8600846C06820F0D2
:102630000C00C8600846C06820F03000C86008463A
:10264000C06820F0C000C8600846006A20F470002E
:1026500008620846006A40F4801008620846006A72
:1026600020F0F00008620846006A40F0100008629E
:102670000846006A20F4706008620846006A40F468
:10268000807008620846006A20F4704008620846BC
:10269000006A40F480500862C800006820F0100012
:1026A000C90008600F20886242F20F70C8620846B5
:1026B0008069504908404FF0804188610846806930
:1026C00040F0200088610846806940F04000886141
:1026D00008468069484908404FF0804188610846B3
:1026E000806940F4005088610846806940F4804069
:1026F00088610846C0693F4908404FF08041C86181
:102700000846C06940F02000C8610846C06940F032
:102710004000C8610846C069374908404FF0804111
:10272000C8610846C06940F40050C8610846C069E5
:1027300040F48040C8610846806940F00800886124
:102740000846806940F4006088610846C06940F02E
:102750000800C8610846C06940F40060C8610846C6
:10276000006A20F0020008620846006A20F020009B
:1027700008620846006A20F4007008620846006A91
:1027800020F4005008620846006A40F00100086228
:102790000846006A40F0100008620846006A40F4EB
:1027A000807008620846006A40F48050086208465B
:1027B000006840F0800008600846406940F0010071
:1027C00048610846006820F060000860084600681C
:1027D00020F01000086040F28A2048638863C863D4
:1027E00008644007006840F001000860704700007E
:1027F000001002408FFFFEFFFF8FFFFE08B500F0C4
:102800001DF800F0D7F800F0F7FB0B48406940F4E2
:102810008050094948610846406940F400604861B9
:102820000B20009001220021684600F0BFFA022030
:1028300000F04EFB08BD0000001000485B48C06C73
:1028400040F010005949C8640846C06C40F00200CE
:10285000C8645748006820F40000554908600846DD
:10286000006840F4800008600846006820F00070AE
:1028700008600846006840F08070086008460068FC
:1028800020F0406008600846006840F00060086082
:102890000846006820F0405008600846006840F094
:1028A000005008600846006820F040400860084674
:1028B000006840F0004008600846406A20F470015B
:1028C0003B484162406A40F4801139484162406AA5
:1028D00040F4800136484162406A20F0706134481B
:1028E0004162406A40F0807131484162406A40F084
:1028F00080612F484162406A20F070412C4841625B
:10290000406A40F080512A484162406A40F080416C
:1029100027484162406820F4006025494860084625
:10292000406820F4805048600846406820F4005019
:1029300048600846406820F4804048600846406887
:1029400020F4004048600846806840F440008860F9
:102950000846806840F0407088600846806840F013
:10296000406088600846806840F0405088600846B3
:10297000806840F0404088600846C06820F440000D
:10298000C8600846C06820F04070C8600846C0684B
:1029900020F04060C8600846C06820F04050C86021
:1029A0000846C06820F04040C860704700100240F0
:1029B000001000483848006E40F4805036490866E0
:1029C0000846006C40F4805008640846006C20F40F
:1029D000805008643148006820F040002F490860AA
:1029E0000846006820F4806008600846006820F40B
:1029F000004008600846006820F4804008600846EF
:102A0000006820F0800008600846406840F470606C
:102A100048600846406820F4006048600846406806
:102A200020F0100048600846006820F002000860AE
:102A30000846006820F0010008600846006840F081
:102A4000380008600846006820F02000086008464A
:102A5000006820F4005008600846006840F0040058
:102A600008600846006840F4007008600846406846
:102A700040F0080048600846006840F48070086034
:102A80000846406840F4805048600846006840F0BE
:102A90004000086070470000001002400030014014
:102AA000002105E0002200E0521C122AFCD3491C40
:102AB0008142F7D3704710B50B46002100BF10E0EC
:102AC00000BF846804F00204022CFAD15C5C047339
:102AD00000BF846804F00104002CFAD0047B5C542D
:102AE000491C9142ECDB00BF846804F08004802C18
:102AF000FAD010BD30B50C46002100BF10E000BF79
:102B0000856805F00205022DFAD1655C057300BFEA
:102B1000856805F00105002DFAD0057B5554491C48
:102B20009942ECDB00BF856805F08005802DFAD066
:102B300030BD000002480068401C01490860704731
:102B40000C00002010B500204FF0E02108611D4866
:102B5000486100208861401E0121002804DB0A072B
:102B6000130E194A135406E00A07140E174A00F010
:102B70000F031B1FD45400BF4FF0FF3000280DDBA4
:102B800000BF00BF00F01F020121914042099200E6
:102B900002F1E022C2F8001100BF00BF00BF4FF0F9
:102BA000E020006940F002004FF0E0210861084693
:102BB000006940F0040008610846006940F0010027
:102BC000086110BD7F38010000E400E018ED00E06E
:102BD0005E49096821F007015C4A116011460968E5
:102BE00041F0020111605A49096841F48071584A64
:102BF000116000BF5649096801F480610029F9D0CD
:102C000010205349496821F0F851514A516011464A
:102C1000496841EA006151601146096821F08071FC
:102C2000116000BF4A49096801F00071B1F1007FED
:102C3000F8D04749C96821F00301454AD1601146DF
:102C4000C96841F00201D1601146C96821F4FE4112
:102C500041F4A051D1601146C96821F0700141F0E2
:102C60001001D1601146C96821F0C061D1601146E0
:102C7000C96841F08071D1601146096841F08071E6
:102C8000116000BF3249096801F000710029F9D0D4
:102C90002F49896821F003012D4A91601146896806
:102CA00041F00301916000BF2949896801F00C01DE
:102CB0000C29F9D12649896821F0F001244A916054
:102CC0001146896821F4E06191601146896821F418
:102CD000605191601146096821F08061116000BF68
:102CE0001B49096801F08061B1F1806FF8D0184983
:102CF000096921F4FE41164A11611146096941F43E
:102D0000C05111611146096941F400311161114648
:102D1000096941F4803111611146096841F080610F
:102D2000116000BF0A49096801F080610029F9D0EB
:102D300007498831096821F44001054AC2F8881022
:102D40001146096E41F400111166704700200240DF
:102D50000010024070B58AB004460D46164605F0D4
:102D60001F0001900F48406920F480500D494861D0
:102D70000A20FFF795FE012302AA01A90A48FFF7DE
:102D8000B9FE324621460848FFF795FE0A20FFF7B4
:102D900087FE0448406940F48050024948610AB007
:102DA00070BD0000001000480030014070B58AB0CE
:102DB00004460E46154646F0200001900F48406933
:102DC00020F480500D4948610A20FFF769FE012375
:102DD00002AA01A90A48FFF78DFE2B4602AA214646
:102DE0000748FFF787FE0A20FFF75AFE03484069AD
:102DF00040F48050014948610AB070BD001000489D
:102E0000003001401CB50122072101A8FFF7A2FFF5
:102E10009DF8042004A16846FDF758FAFEF740FD2E
:102E20006846FEF7CFFE1CBD2578000003B401986C
:102E30004100009850EAC12018BF04204A0D18BF75
:102E400040F0010040F2FF72B2EB515F08BF40F06A
:102E50000200012808BF052002B0704730380A2858
:102E600001D2012070470020704700000548C06C67
:102E700040F001000349C8640846806D40F001003D
:102E800088657047001002404FF08040C06B401EC4
:102E900040F27121884206D808468107486388635A
:102EA000C863086412E04FF08040406B401F4FF051
:102EB000804148630846806B401F88630846C06BAA
:102EC000401FC8630846006C401F0864704700003C
:102ED000054A116800BF044A1268521A8242FAD3A6
:102EE0000022014B1A6070470C0000204FF0804018
:102EF000C06B401C40F25231884206D3084641075D
:102F000048638863C863086412E04FF08040406BF8
:102F1000401D4FF0804148630846806B401D886328
:102F20000846C06B401DC8630846006C401D08641D
:102F3000704740F27120810748638863C863086462
:102F40007047000010B5FFF743FEFFF7FBFDFEF7EB
:102F500067FEFFF78BFFFFF719FBFEF72DFCFFF76E
:102F60004DFC23A0FEF72EFE002440E040F271202D
:102F7000810748638863C86308644FF4FA70FFF7F9
:102F8000A7FF40F2EE204FF0804148638863C8639A
:102F900008644FF4FA70FFF79BFFFFF7CAFF4FF486
:102FA000FA60FFF795FFFFF7C4FF4FF47A70FFF761
:102FB0008FFF002408E0FFF799FFFFF797FF4FF41A
:102FC0007A70FFF785FF641C0A2CF4DB002408E00C
:102FD000FFF75AFFFFF758FF4FF47A70FFF778FFBB
:102FE000641C0A2CF4DBFFF7A4FF002010BDBDE732
:102FF000737461727400000008B51F2000900122F4
:1030000004216846FFF7D2FE062000900122062127
:103010006846FFF7CBFE0320009001220521684699
:10302000FFF7C4FE20200090012211216846FFF71F
:10303000BDFE00200090012211466846FFF7B6FE53
:1030400008BD000010B500290AD00878002807D074
:1030500005487844FDF7BCFD002801D0002010BDD4
:103060000248784410BD0000760700006E0700009B
:1030700021F00042A2F16052B2F5801F01F000433E
:1030800028BFD2F17F6C0BD95FEA001C43EAC20271
:1030900042EB507018BF704728BF20F00100704706
:1030A000B2F5801FBCBF184670474FEA410C1CF5B3
:1030B000001F02D2084600F0EDBA70B500F020FA09
:1030C00000000089FFF7F6BF4FF00040A0F5800038
:1030D000704700002DE9C04130B4DFF8A0C23CEADF
:1030E000111418BF3CEA131400F0EC8081EA0305C8
:1030F0001CEA111444EAD57418BF1CEA131500F039
:10310000C780A4EB05044FF0004545EAC12145EA1C
:10311000C32341EA505143EA525304F17F74994268
:1031200004F500344FEAC0204FEAC22208BF9042A3
:1031300000F09C804FEA13650FF24016765D4FEA6F
:10314000134506FB05F7C7F1807706FB07F74FEA43
:10315000D737A7FB03687642C8F58038A7FB06CEB1
:1031600038BFA8F1010807FB08E64FF0000EA6FBE8
:10317000028CE6FB03CEDCF1000CCEF1004E38BF32
:10318000AEF1010EA6FB0C584FF000074FF0000502
:10319000E6FB0E87A1FB08C6A0FB07CE16EB0E06CA
:1031A00045F10005E1FB076515F1E04E7EBFA4F592
:1031B00080345FEA46066D4116F1800745F100054F
:1031C0004FEA17274FEA066647EA0567A6F1DE468B
:1031D000B6F1805F4FEA15251FD9384624F0010C5F
:1031E00005EBC471BCF1FE6F01EB0C1102D8F0BC11
:1031F000BDE8008124425CBF01F5801E9EEAC47FC9
:1032000002D4F0BCBDE80081244238D4F0BCA1F166
:10321000C041BDE8004100F0C1B94FEAD22242EA04
:1032200043524FEAD323A7FB02864FEAD02040EA5D
:10323000415007FB03661EEA0E0F4FEAD12105FB42
:10324000026658BFA6EB0056B6EB00564FEA520E88
:103250004EEAC37E18EB0E0E56EB530EBDD518EB9F
:1032600002085E417F1C55F10005B6E74FF480155A
:103270004FF000074FF000064FF00008ADE7F0BC3C
:103280004FF0000001F1C04101F00041BDE80081B4
:1032900011EA0C1F0CEA131500D00CE013EA0C1F06
:1032A00000F025804FF00000F0BC81EA030101F03E
:1032B0000041BDE80081F0BCBDE8004181EA0301A6
:1032C00000F06CB9F0BCBDE8004170B500F018F931
:1032D000097EFC3E00F007B881EA03014FF00000D0
:1032E00001F00041704781EA030100F057B9F0BCDA
:1032F000BDE800414FF0000021497047FFFDFBF998
:10330000F7F5F4F2F0EEEDEBE9E8E6E4E3E1E0DE18
:10331000DDDBDAD8D7D5D4D3D1D0CFCDCCCBCAC88A
:10332000C7C6C5C4C2C1C0BFBEBDBCBBBAB9B8B7B1
:10333000B6B5B4B3B2B1B0AFAEADACABAAA9A8A8A4
:10334000A7A6A5A4A3A3A2A1A09F9F9E9D9C9C9B72
:103350009A9999989797969595949393929191901D
:103360008F8F8E8E8D8C8C8B8B8A898988888787AE
:103370008685858484838382828181800000FF0723
:103380000000F87FB0FA80F310FA03F10AD0C3F11D
:103390001D0303F580634FEA41504FEA035202EBED
:1033A000D12170474FF0000070470000DFF848C19E
:1033B00070B51CEA111E1EBF1CEA13159EEA0C0F05
:1033C00095EA0C0F00F06F8081EA030423EA4C13A6
:1033D0004EEAD47E21EA4C1141F4801143F480136B
:1033E000AE44A1FB024CA0FB0365AEF17F7E361913
:1033F00055EB0C05A1FB034C4CF10003A0FB021C98
:1034000016EB0C06654153F10003094218BF46F064
:10341000010613F4007F0BD14FEA03314FEA053068
:10342000340341EA155140EA16506FF003020AE0F6
:103430004FEAC3214FEAC520F40241EA555140EA60
:1034400056506FF0020202EB2E4201EB025585EA64
:10345000CE710AD05FEA440C18BF24F0004450F14A
:10346000000041F1000120EAD47040F2FE7C624588
:1034700000D270BDA84214BF4FF080444FF04044CA
:10348000002E08BF0024BEF1806FA8BFA1F1C0418B
:10349000BDE8704080F282804FF0000001F1C04131
:1034A00001F0004170479EEA0C0F0CEA131518BF9B
:1034B00095EA0C0F06D04FF0000081EA030E0EF0E3
:1034C000004170BD00F01CF88900013E00F007B813
:1034D00000F009B84FEA430C5FEA5C5C08D081EA6F
:1034E000030100F05BB84FEA410C5FEA5C5CF6D187
:1034F0004FF00000014970470000FF070000F87F0F
:103500000EF1020E2EF0030E5EF8046B364205D467
:10351000012A43EB030515F5001F12D8012841EBE2
:10352000010C1CF5001F0CD80ED14FEAD17C15F50B
:10353000001F0CEB4C0C0CF1020C08BF4CEBD37CC5
:1035400004E04FF0080C01E04FEAD37C0CEB4C0593
:1035500026FA05F606F00706B6F1040C06D20EEBC5
:10356000860CBDE870404CF0010C6047DFE80CF0C1
:10357000090B02024FF000414FF00000A1F50021BD
:1035800070BD19461046012851EB010418BFD4F54F
:10359000001484BF002001F0004170BD0808A0F5B0
:1035A00000114FEA3101704743004FEAD30C4FEA54
:1035B0003C0C43401FBF40070CF1605113F0FE4F1D
:1035C00070471CF0006F03D100200CF000417047E1
:1035D0000CF0004343EA507010B540EACC0000F014
:1035E0000EF800BF000000924FEA0001FFF7D6BFBF
:1035F0004FF000414FF00000A1F5002170470EF19F
:10360000020E2EF0030E5EF8044B244204D44FEA5F
:103610004102B2F17F4F11D84FEA4003B3F17F4F1F
:103620000CD80ED14FEAD07CB2F17F4F0CEB4C0C92
:103630000CF1020C08BF4CEBD17C04E04FF0080CFD
:1036400001E04FEAD17C0CEB4C0324FA03F404F0C4
:103650000704B4F1040C06D20EEB840CBDE8104054
:103660004CF0010C6047DFE80CF0070802024FF055
:103670000040A0F5800010BD0846420018BFD2F1FE
:10368000807288BF00F0004010BD4FF04070E1EE46
:10369000100A7047FF2141EAD050C0057047FDF77E
:1036A00011B800FE1467001D1447009D009C003FE8
:1036B00000FA1400005341980019485A095A005F53
:1036C00000FC015F01FC00AF1404005BC018815ACC
:1036D000C9005800C005005F004200F5006700EA1D
:1036E00000AF00BF004600FF00EF30313233343509
:1036F000363738394142434445464030580030312E
:103700003233343536373839616263646566403048
:103710007800000002400000000000A0000000004F
:1037200005400000000000C8000000000C40000040
:103730000000409C00000000194000000020BCBEBA
:103740000000000034400000BFC91B8E00000004D0
:10375000B5400000504BCFD06607E2CF010000001B
:103760006C4100003E8251AADFEEA7340100000048
:10377000D9420000DCB5A0E23A301F97FFFFFFFFFF
:10378000B4450000FD25A0C8E9A3C14FFFFFFFFF1E
:10379000FF3F00000000008000000000FF3F00002D
:1037A0000000008000000000E43700080000002056
:1037B00014000000C4010008F837000814000020BD
:1037C00064060000E00100081C0000004300000047
:1037D000F8FFFFFF0C0000000E0000000F000000CB
:1037E0002E00000000008002000000000000000029
:0837F0000000000000000000D1
:040000050800018965
:00000001FF
