:020000040800F2
:10000000600600200D020008490200084B020008AB
:100010004D0200084F0200085102000800000000D5
:100020000000000000000000000000005302000873
:10003000550200080000000057020008590200089D
:100040005B0200085B0200085B0200085B0200081C
:100050005B0200085B0200085B0200085B0200080C
:100060005B0200080D0300085B0200085B02000849
:100070005B0200085B0200085B0200085B020008EC
:100080005B0200085B0200085B0200085B020008DC
:100090005B0200085B0200085B0200082503000801
:1000A0005B0200085B0200085B0200085B020008BC
:1000B0005B0200085B0200085B0200085B020008AC
:1000C0005B0200085B0200085B0200085B0200089C
:1000D0005B0200085B0200085B0200085B0200088C
:1000E0005B0200085B0200085B0200085B0200087C
:1000F0005B0200085B0200085B0200085B0200086C
:100100005B0200085B0200085B0200085B0200085B
:100110005B0200085B0200085B0200085B0200084B
:100120005B0200085B0200085B0200085B0200083B
:100130005B0200085B0200085B0200085B0200082B
:100140005B0200085B0200085B0200085B0200081B
:100150005B0200085B0200085B0200085B0200080B
:100160005B0200085B0200085B0200085B020008FB
:100170005B0200085B0200085B0200080000000050
:100180005B0200085B02000800F002F800F02EF8A5
:100190000AA090E8000C82448344AAF10107DA45E2
:1001A00001D100F023F8AFF2090EBAE80F0013F006
:1001B000010F18BFFB1A43F001031847940D00000C
:1001C000A40D00000023002400250026103A28BFBB
:1001D00078C1FBD8520728BF30C148BF0B607047B9
:1001E0001FB500F0AFFE1FBD10B510BD00F053F8F5
:1001F0001146FFF7F5FF00F08FFD00F071F803B432
:10020000FFF7F2FF03BC00F079F800001648174929
:10021000174B99423CBF50F8042B41F8042BF8D3FC
:1002200014494FF000028B4238BF43F8042BFAD335
:10023000DFF84400016841F470010160BFF34F8FA3
:10024000BFF36F8F0D480047FEE7FEE7FEE7FEE7CE
:10025000FEE7FEE7FEE7FEE7FEE7FEE7084809499E
:10026000094A0A4B70470000600F00080000002098
:10027000000000206006002088ED00E089010008F1
:100280006000002060060020600200206002002064
:10029000704770477047754600F02CF8AE46050071
:1002A0006946534620F00700854618B020B5FFF791
:1002B000D5FFBDE820404FF000064FF000074FF09B
:1002C00000084FF0000B21F00701AC46ACE8C00974
:1002D000ACE8C009ACE8C009ACE8C0098D4670477D
:1002E00010B50446AFF300802046BDE81040FFF78C
:1002F00086BF000000487047000000200149182018
:10030000ABBEFEE7260002007047000010B50448AF
:10031000006840F008000249086000F073FC10BD5E
:100320001404014010B50448006840F02000024960
:10033000086000F03DFC10BD140401402C4800682A
:1003400020F440502A4908600846006840F40050F4
:1003500008600846006820F44040086008460068CD
:1003600040F40040086022482030006820F07060AF
:100370001F49203108600846006840F0806008602E
:100380000846006820F0704008600846006840F0A9
:10039000804008601648001D006840F04000144985
:1003A000091D08600846006840F080000860081DCC
:1003B000006840F44050091D08600846006840F499
:1003C00040400860081D006820F44050091D086086
:1003D0000846006840F4805008600846006820F431
:1003E000404008600846006840F48040086070475C
:1003F0000004004852204749896D41F40011454AE4
:10040000916544498831096821F44051C2F8881047
:100410001146D1F8881041F48051C2F88810114675
:10042000896B41F4001191631146896B21F400112D
:1004300091633949096821F00101374A1160114679
:10044000096821F4805111601146096821F4706136
:1004500011601146096841F0800111601146096878
:1004600021F400311160111D096821F40061121D91
:1004700011601146096841F0007111601146096868
:1004800041F4004111600021234A103211601146ED
:10049000096841F0E04111601146096841F47001BA
:1004A00011601146096841F4702111601146096814
:1004B00041F4345111601146096841F0370111606F
:1004C00015490831096821F40041134A08321160C6
:1004D000111D096821F40041121D1160111F0968E6
:1004E00021F48061121F1160114609686FF3090140
:1004F00011601146096841EA40011160114609681E
:1005000041F4004111600449096841F00101024AC7
:100510001160704700100240005400402DE9F04186
:100520000446884617461D46002D00DD1FB94FF0D2
:10053000FF30BDE8F081204600F057F800232A463E
:100540004146204600F028F8002802DA4FF0FF303C
:10055000EFE7002608E000BFA06900F002000028D5
:10056000FAD0B85DA062761CAE42F4DB00BFA06991
:1005700000F0400020B9A06900F010000028F6D07B
:10058000A06900F0100010B14FF0FF30D1E7204615
:1005900000F020F80020CCE770B504460D4600219D
:1005A00061680B480140012B02D141F4806101E0F8
:1005B00021F48061C5F309004FF47F0606EA024684
:1005C0003043014341F400516160002070BD0000E0
:1005D000009800FC416841F48041416000BF81699E
:1005E00001F020010029FAD0704700BF816901F4B1
:1005F0000041B1F5004FF9D070470000002000BF66
:100600000B49096801F004010029F9D1002006E036
:10061000002207490C3141F82020411CC8B20F28A4
:10062000F6DD0349096841F00401014A1160704791
:10063000082400402F48806D00F0805028B92D48D4
:10064000806D40F080502B4988652A48806D2A488B
:10065000006800F4807060B92748006840F480703A
:100660002549086000BF2448006800F48070002815
:10067000F9D020489030006820F005001D49C1F8ED
:1006800090000846D0F8900040F48030C1F8900007
:100690000846D0F8900020F48030C1F8900007E0C0
:1006A00014489030006840F001001249C1F89000F1
:1006B00010489030006800F002000028F0D00D488B
:1006C0009030006820F440700A49C1F89000084654
:1006D000D0F8900040F48070C1F890000846806D1A
:1006E00020F0805088650846806D40F40070886571
:1006F0007047000000100240007000403E48006853
:1007000020F001003C490860081D006840F47010AA
:10071000091D08600846006820F0707008600846EF
:10072000006820F4403008600846006820F460400B
:1007300008600846006840F4804008600846006889
:1007400040F0700008600846006820F4E05008603F
:100750000846006840F4A05008600846006820F091
:10076000700008600846006840F04000086000BF64
:1007700021480830006800F020000028F8D01E480A
:10078000006820F01C001C4908600846006840F022
:100790000C0008600846006820F060000860084609
:1007A000006840F0400008600846006820F08000C3
:1007B00008600846006820F00200086008460068EB
:1007C00040F00100086000BF0B480830006800F0EE
:1007D00001000028F8D000BF07480830006800F08A
:1007E00010000028F8D004480830006840F00400E9
:1007F00001490831086070470024004000B500F04E
:1008000007F8FFF717FFFFF779FFFFF7F7FE00BDC7
:100810005E48C06C40F00F005C49C8644FF09040E7
:1008200000685B4908404FF0904108600846006846
:10083000584908434FF0904108600846006A40F06C
:100840003B4008620846406A534908434FF09041D4
:100850004862084680684E4908404FF090418860E1
:10086000084680684B4908434FF09041886008462D
:10087000C068474908404FF09041C8604748006849
:10088000474908404549086008460068454908430B
:100890004249086041482030006840F0BB103F49A1
:1008A000203108603D48406A3F4908433B4948625F
:1008B0003A48083000683A49084038490831086029
:1008C0000846006837490843344908310860081D64
:1008D00000683349084031490C31086033480068EA
:1008E00033490840314908600846006831490843E7
:1008F0002E4908602D48203000682F4908432B49B5
:10090000203108602948406A40F00B0127484162C5
:100910002648083000682649084024490831086004
:100920000846006823490843204908310860081D2B
:1009300000681F4908401D490C3108601F480068C5
:1009400080B21E490860084600681D4908431B49DB
:1009500008600846406A40F0BB31184841621748B9
:10096000083000686FF30F0014490831086008462A
:10097000006813490843114908310860081D0068E0
:100980006FF30F00091D086070470000001002405F
:10099000FF0FC03F00A02A80BB0B00B0000400483E
:1009A000F0F0F3000A0A08AAB000BBBB0008004838
:1009B0003F00FCFF80AA020000B0BBBB000C004857
:1009C0000000AAAA5E49096821F007015C4A11608B
:1009D0001146096841F0020111605A49096841F461
:1009E0008071584A116000BF5649096801F480615E
:1009F0000029F9D010205349496821F0F851514A93
:100A000051601146496841EA006151601146096828
:100A100021F08071116000BF4A49096801F000713E
:100A2000B1F1007FF8D04749C96821F00301454A78
:100A3000D1601146C96841F00201D1601146C96810
:100A400021F4FE4141F4A051D1601146C96821F062
:100A5000700141F01001D1601146C96821F0C061F8
:100A6000D1601146C96841F08071D16011460968B2
:100A700041F08071116000BF3249096801F00071D6
:100A80000029F9D02F49896821F003012D4A91608E
:100A90001146896841F00301916000BF29498968C6
:100AA00001F00C010C29F9D12649896821F0F001E7
:100AB000244A91601146896821F4E06191601146F1
:100AC000896821F4605191601146096821F08061C4
:100AD000116000BF1B49096801F08061B1F1806FAE
:100AE000F8D01849096921F4FE41164A11611146EE
:100AF000096941F4C05111611146096941F400319D
:100B000011611146096941F480311161114609688A
:100B100041F08061116000BF0A49096801F08061FD
:100B20000029F9D007498831096821F44001054AB4
:100B3000C2F888101146096E41F400111166704721
:100B4000002002400010024000280DDB00BF00BF63
:100B500000F01F02012191404209920002F1E022BF
:100B6000C2F8001100BF00BF7047000010B5002898
:100B700004DB0A07130E054A135406E00A07140E95
:100B8000034A00F00F031B1FD45410BD00E400E023
:100B900018ED00E00548C06C40F001000349C8644E
:100BA0000846806D40F001008865704700100240E3
:100BB0004FF08040C06B401E40F27121884208D83F
:100BC000084681078863C8630D490860091D0860ED
:100BD00014E04FF08040806B0A384FF0804188630A
:100BE0000846C06B0A38C863054800680A380449DB
:100BF0000860081D00680A38091D08607047000079
:100C00003C2C01404FF08040C06B401C40F2523100
:100C1000884208D3084641078863C8630D490860C5
:100C2000091D086014E04FF08040806B0A304FF0DF
:100C3000804188630846C06B0A30C8630548006875
:100C40000A3004490860081D00680A30091D086060
:100C5000704700003C2C014010B51C48806820F40F
:100C6000E0401A49886008468068886008468068C5
:100C700020F070008860084680688860144800682A
:100C800040F00800124908600846006840F0200063
:100C900008600F480C38006840F008000C490C3917
:100CA00008600846006840F0200008600920FFF74F
:100CB0004BFF00210920FFF759FF1720FFF744FFE2
:100CC00000211720FFF752FF10BD00000000014077
:100CD0000C0401404FF09040006820F0C0004FF03D
:100CE000904108600846006820F4406008600846AB
:100CF000C06840F08000C8600846C06820F040002E
:100D0000C8600846C06840F40060C8600846C06813
:100D100020F48060C86070470EB5FFF73BFFFFF717
:100D200051FEFFF7D7FFFFF797FF00F01DF8FFF721
:100D300065FDFFF763FCFFF701FBFFF75BFB00209E
:100D400002908025022020700020019000BF0090BA
:100D500000BF0123224629460248FFF7DFFB00BF00
:100D6000FEE70000005400404FF09040006840F063
:100D700008004FF0904108600846006820F0040029
:100D800008600846006840F02000086008460068D7
:100D900020F0100008600846806840F00C00886071
:100DA0000846806840F0300088600846C06820F03F
:100DB0000C00C8600846C06820F03000C8600846D3
:100DC000006A20F0F00008620846006A40F0100057
:100DD00008620846006A20F4706008620846006AEB
:100DE00040F480700862C800006820F01000C9005C
:100DF00008600F20886242F20F70C862084680695E
:100E00004E4908404FF0804188610846806940F0B3
:100E1000200088610846806940F0400088610846EB
:100E20008069474908404FF08041886108468069E1
:100E300040F4005088610846806940F48040886131
:100E40000846C0693D4908404FF08041C8610846E6
:100E5000C06940F02000C8610846C06940F0400009
:100E6000C8610846C069364908404FF08041C861F2
:100E70000846C06940F40050C8610846C06940F4A3
:100E80008040C8610846806940F0080088610846D3
:100E9000806940F4006088610846C06940F008003D
:100EA000C8610846C06940F40060C8610846006A2D
:100EB00020F0020008620846006A20F02000086264
:100EC0000846006A20F4007008620846006A20F4B0
:100ED000005008620846006A40F0010008620846B7
:100EE000006A40F0100008620846006A40F4807012
:100EF00008620846006A40F48050086208460068AC
:100F000040F0800008600846406940F001004861F8
:100F10000846006820F0600008600846006820F07D
:100F20001000086040F28A2048638863C863086440
:100F30004007006840F00100086070478FFFFEFF27
:100F4000FF8FFFFE4FF04070E1EE100A7047000087
:100F5000600F00080000002060060000C4010008C7
:040000050800018965
:00000001FF
