:020000040800F2
:10000000600600200D020008490200084B020008AB
:100010004D0200084F0200085102000800000000D5
:100020000000000000000000000000005302000873
:10003000550200080000000057020008590200089D
:100040005B0200085B0200085B0200085B0200081C
:100050005B0200085B0200085B0200085B0200080C
:100060005B0200080D0300085B0200085B02000849
:100070005B0200085B0200085B0200085B020008EC
:100080005B0200085B0200085B0200085B020008DC
:100090005B0200085B0200085B0200082503000801
:1000A0005B0200085B0200085B0200085B020008BC
:1000B0005B0200085B0200085B0200085B020008AC
:1000C0005B0200085B0200085B0200085B0200089C
:1000D0005B0200085B0200085B0200085B0200088C
:1000E0005B0200085B0200085B0200085B0200087C
:1000F0005B0200085B0200085B0200085B0200086C
:100100005B0200085B0200085B0200085B0200085B
:100110005B0200085B0200085B0200085B0200084B
:100120005B0200085B0200085B0200085B0200083B
:100130005B0200085B0200085B0200085B0200082B
:100140005B0200085B0200085B0200085B0200081B
:100150005B0200085B0200085B0200085B0200080B
:100160005B0200085B0200085B0200085B020008FB
:100170005B0200085B0200085B0200080000000050
:100180005B0200085B02000800F002F800F02EF8A5
:100190000AA090E8000C82448344AAF10107DA45E2
:1001A00001D100F023F8AFF2090EBAE80F0013F006
:1001B000010F18BFFB1A43F0010318479C0500000C
:1001C000AC0500000023002400250026103A28BFBB
:1001D00078C1FBD8520728BF30C148BF0B607047B9
:1001E0001FB500F0B3FA1FBD10B510BD00F053F8F5
:1001F0001146FFF7F5FF00F04DF900F071F803B478
:10020000FFF7F2FF03BC00F079F800001648174929
:10021000174B99423CBF50F8042B41F8042BF8D3FC
:1002200014494FF000028B4238BF43F8042BFAD335
:10023000DFF84400016841F470010160BFF34F8FA3
:10024000BFF36F8F0D480047FEE7FEE7FEE7FEE7CE
:10025000FEE7FEE7FEE7FEE7FEE7FEE7084809499E
:10026000094A0A4B70470000680700080000002098
:10027000000000206006002088ED00E089010008F1
:100280006000002060060020600200206002002064
:10029000704770477047754600F02CF8AE46050071
:1002A0006946534620F00700854618B020B5FFF791
:1002B000D5FFBDE820404FF000064FF000074FF09B
:1002C00000084FF0000B21F00701AC46ACE8C00974
:1002D000ACE8C009ACE8C009ACE8C0098D4670477D
:1002E00010B50446AFF300802046BDE81040FFF78C
:1002F00086BF000000487047000000200149182018
:10030000ABBEFEE7260002007047000010B50448AF
:10031000006840F008000249086000F053F810BD82
:100320001404014010B50448006840F02000024960
:10033000086000F041F810BD1404014000280DDBF6
:1003400000BF00BF00F01F0201219140420992004E
:1003500002F1E022C2F8001100BF00BF70470000A8
:1003600010B5002804DB0A07130E054A135406E0F3
:100370000A07140E034A00F00F031B1FD45410BDCC
:1003800000E400E018ED00E00A48C06C40F0010015
:100390000849C8640846C06C40F01000C8640846AC
:1003A000806D40F0010088650846006E40F40060F2
:1003B00008667047001002407D20014908607047C0
:1003C000342C01404FF47A700149086070470000F6
:1003D000342C014010B51C48806820F4E0401A49D4
:1003E00088600846806888600846806820F0700051
:1003F00088600846806888601448006840F00800FB
:10040000124908600846006840F0200008600F4864
:100410000C38006840F008000C490C3908600846A8
:10042000006840F0200008600920FFF787FF0021E6
:100430000920FFF795FF1720FFF780FF0021172005
:10044000FFF78EFF10BD0000000001400C040140CA
:100450004FF09040006820F0C0004FF090410860DD
:100460000846006820F4406008600846C06840F014
:100470008000C8600846C06820F04000C860084698
:10048000C06840F40060C8600846C06820F480601E
:10049000C8607047FFF778FFFFF7DAFFFFF79AFFB2
:1004A00000F002F800BFFEE7A448006840F4003006
:1004B000A24908600846006820F4803008600846B9
:1004C000806840F4403088600846C06820F44030BE
:1004D000C8600846406A20F00F0198484162406AAF
:1004E00040F00101954841629548006820F01000F5
:1004F00093490860032092492831086040F2CF7088
:10050000091D08608E48183000688E4908408C49E3
:10051000183108600846006840F02000086008466E
:10052000006840F0400008600846006840F008009D
:10053000086083482030006820F00800804920319E
:1005400008600846006840F0040008607C484430B9
:10055000006840F400407A4944310860FA20784944
:10056000343108607648006840F001007449086042
:100570004FF09040006840F002004FF0904108605A
:100580000846006820F0010008600846006840F056
:10059000080008600846006820F00400086008466B
:1005A000006840F0200008600846006820F0100055
:1005B00008600846806840F003008860084680684C
:1005C00040F00C0088600846806840F03000886089
:1005D0000846C06820F00300C8600846C06820F0E4
:1005E0000C00C8600846C06820F03000C8600846AB
:1005F000006A20F00F0008620846006A40F001001F
:1006000008620846006A20F0F00008620846006AA6
:1006100040F0100008620846006A20F4706008622A
:100620000846006A40F480700862C800006820F044
:100630001000C90008600320886244F61F60C86289
:10064000084680693F4908404FF08041886108466C
:10065000806940F0200088610846806940F04000D1
:10066000886108468069384908404FF080418861B8
:100670000846806940F4005088610846806940F46B
:10068000804088610846C0692E4908404FF080418B
:10069000C8610846C06940F02000C8610846C069CA
:1006A00040F04000C8610846806940F00800886159
:1006B0000846806940F4006088610846C06940F0DF
:1006C0000800C8610846006A20F002000862084677
:1006D000006A20F0200008620846006A20F40070DA
:1006E00008620846006A40F0010008620846006A95
:1006F00040F0100008620846006A40F4807008620A
:100700000846006840F0800008600846406940F0F4
:10071000010048610846006820F060000860084653
:10072000006820F01000086042F2107048638006F4
:10073000006840F0010008607047000000100048A9
:10074000002C01408FFFFEFFFF8FFFFE4FF0407037
:10075000E1EE100A70470000680700080000002062
:0807600060060000C40100085E
:040000050800018965
:00000001FF
