:020000040800F2
:10000000600600200D020008490200084B020008AB
:100010004D0200084F0200085102000800000000D5
:100020000000000000000000000000005302000873
:10003000550200080000000057020008590200089D
:100040005B0200085B0200085B0200085B0200081C
:100050005B0200085B0200085B0200085B0200080C
:100060005B0200080D0300085B0200085B02000849
:100070005B0200085B0200085B0200085B020008EC
:100080005B0200085B0200085B0200085B020008DC
:100090005B0200085B0200085B0200082503000801
:1000A0005B0200085B0200085B0200085B020008BC
:1000B0005B0200085B0200085B0200085B020008AC
:1000C0005B0200085B0200085B0200085B0200089C
:1000D0005B0200085B0200085B0200085B0200088C
:1000E0005B0200085B0200085B0200085B0200087C
:1000F0005B0200085B0200085B0200085B0200086C
:100100005B0200085B0200085B0200085B0200085B
:100110005B0200085B0200085B0200085B0200084B
:100120005B0200085B0200085B0200085B0200083B
:100130005B0200085B0200085B0200085B0200082B
:100140005B0200085B0200085B0200085B0200081B
:100150005B0200085B0200085B0200085B0200080B
:100160005B0200085B0200085B0200085B020008FB
:100170005B0200085B0200085B0200080000000050
:100180005B0200085B02000800F002F800F02EF8A5
:100190000AA090E8000C82448344AAF10107DA45E2
:1001A00001D100F023F8AFF2090EBAE80F0013F006
:1001B000010F18BFFB1A43F0010318472006000087
:1001C000300600000023002400250026103A28BF36
:1001D00078C1FBD8520728BF30C148BF0B607047B9
:1001E0001FB500F0F5FA1FBD10B510BD00F053F8B3
:1001F0001146FFF7F5FF00F08FF900F071F803B436
:10020000FFF7F2FF03BC00F079F800001648174929
:10021000174B99423CBF50F8042B41F8042BF8D3FC
:1002200014494FF000028B4238BF43F8042BFAD335
:10023000DFF84400016841F470010160BFF34F8FA3
:10024000BFF36F8F0D480047FEE7FEE7FEE7FEE7CE
:10025000FEE7FEE7FEE7FEE7FEE7FEE7084809499E
:10026000094A0A4B70470000EC0700080000002014
:10027000000000206006002088ED00E089010008F1
:100280006000002060060020600200206002002064
:10029000704770477047754600F02CF8AE46050071
:1002A0006946534620F00700854618B020B5FFF791
:1002B000D5FFBDE820404FF000064FF000074FF09B
:1002C00000084FF0000B21F00701AC46ACE8C00974
:1002D000ACE8C009ACE8C009ACE8C0098D4670477D
:1002E00010B50446AFF300802046BDE81040FFF78C
:1002F00086BF000000487047000000200149182018
:10030000ABBEFEE7260002007047000010B50448AF
:10031000006840F008000249086000F075F810BD60
:100320001404014010B50448006840F02000024960
:10033000086000F041F810BD1404014000280DDBF6
:1003400000BF00BF00F01F0201219140420992004E
:1003500002F1E022C2F8001100BF00BF70470000A8
:1003600010B5002804DB0A07130E054A135406E0F3
:100370000A07140E034A00F00F031B1FD45410BDCC
:1003800000E400E018ED00E00A48C06C40F0010015
:100390000849C8640846C06C40F01000C8640846AC
:1003A000806D40F0010088650846006E40F40060F2
:1003B00008667047001002404FF08040C06B401E3E
:1003C0007D2808D87D2081078863C8630D490860AF
:1003D000091D086014E04FF08040806B801E4FF0D4
:1003E000804188630846C06B801EC863054800686A
:1003F000801E04490860081D0068801E091D0860F1
:10040000704700003C2C01404FF08040C06B401C06
:10041000AA2808D3AA2041078863C8630D49086049
:10042000091D086014E04FF08040806B801C4FF085
:10043000804188630846C06B801CC863054800681B
:10044000801C04490860081D0068801C091D0860A4
:10045000704700003C2C014010B51C48806820F417
:10046000E0401A49886008468068886008468068CD
:1004700020F0700088600846806888601448006832
:1004800040F00800124908600846006840F020006B
:1004900008600F480C38006840F008000C490C391F
:1004A00008600846006840F0200008600920FFF757
:1004B00045FF00210920FFF753FF1720FFF73EFFFC
:1004C00000211720FFF74CFF10BD00000000014085
:1004D0000C0401404FF09040006820F0C0004FF045
:1004E000904108600846006820F4406008600846B3
:1004F000C06840F08000C8600846C06820F0400036
:10050000C8600846C06840F40060C8600846C0681B
:1005100020F48060C8607047FFF736FFFFF7DAFF0E
:10052000FFF79AFF00F002F800BFFEE7A44800685A
:1005300040F00060A24908600846006820F0806032
:1005400008600846806840F0406088600846C068DF
:1005500020F04060C8600846406A20F47001984866
:100560004162406A40F4801195484162006840F061
:100570000050934908600846006820F080500860E9
:100580000846806840F0405088600846C06820F007
:100590004050C8600846406A20F070618848416257
:1005A000406A40F08071864841628648006820F0C9
:1005B000100084490860032082492831086040F215
:1005C000CF70091D08607F481C3000687E490840D4
:1005D0007C491C3108600846006840F02000086033
:1005E0000846006840F0400008600846006840F097
:1005F00008000860084600687449084071491C31C9
:1006000008600846006840F400500860084600682A
:1006100040F4804008600846006840F400600860CC
:10062000081D006820F40070091D08600846006875
:1006300020F4005008600846006840F480700860AC
:100640000846006840F4805008605E484430006806
:1006500040F400405B4944310860822059493C31F4
:100660000860091D08605748006840F001005549BE
:1006700008604FF09040006840F008004FF0904153
:1006800008600846006820F004000860084600681A
:1006900040F0200008600846006820F01000086064
:1006A0000846806840F00C0088600846806840F08A
:1006B000300088600846C06820F00C00C86008461A
:1006C000C06820F03000C8600846006A20F0F000E2
:1006D00008620846006A40F0100008620846006A96
:1006E00020F4706008620846006A40F48070086276
:1006F000C800006820F01000C9000860032088626C
:1007000040F2CF70C86208468069304908404FF017
:10071000804188610846806940F40050886108463D
:10072000806940F4804088610846C06926490840D5
:100730004FF08041C8610846C06940F02000C861A0
:100740000846C06940F04000C8610846806940F42E
:10075000006088610846C06940F00800C86108462A
:10076000006A20F0200008620846006A20F4007049
:1007700008620846006A40F0100008620846006AF5
:1007800040F4807008620846006840F0800008600D
:100790000846406940F0010048610846006820F0C2
:1007A000600008600846006820F0100008608220A1
:1007B0008863C8634007006840F001000860704724
:1007C00000100048002C01408FFFFEFFFF8FFFFE4E
:1007D0004FF04070E1EE100A70470000EC0700088F
:0C07E0000000002060060000C4010008BA
:040000050800018965
:00000001FF
