:020000040800F2
:10000000600600200D020008490200084B020008AB
:100010004D0200084F0200085102000800000000D5
:100020000000000000000000000000005302000873
:10003000550200080000000057020008590200089D
:100040005B0200085B0200085B0200085B0200081C
:100050005B0200085B0200085B0200085B0200080C
:100060000D030008250300085B0200085B0200087E
:100070005B0200085B0200085B0200085B020008EC
:100080005B0200085B0200085B0200085B020008DC
:100090005B0200085B0200085B0200083D030008E9
:1000A0005B0200085B0200085B0200085B020008BC
:1000B0005B0200085B0200085B0200085B020008AC
:1000C0005B0200085B0200085B0200085B0200089C
:1000D0005B0200085B0200085B0200085B0200088C
:1000E0005B0200085B0200085B0200085B0200087C
:1000F0005B0200085B0200085B0200085B0200086C
:100100005B0200085B0200085B0200085B0200085B
:100110005B0200085B0200085B0200085B0200084B
:100120005B0200085B0200085B0200085B0200083B
:100130005B0200085B0200085B0200085B0200082B
:100140005B0200085B0200085B0200085B0200081B
:100150005B0200085B0200085B0200085B0200080B
:100160005B0200085B0200085B0200085B020008FB
:100170005B0200085B0200085B0200080000000050
:100180005B0200085B02000800F002F800F02EF8A5
:100190000AA090E8000C82448344AAF10107DA45E2
:1001A00001D100F023F8AFF2090EBAE80F0013F006
:1001B000010F18BFFB1A43F001031847EC050000BC
:1001C000FC0500000023002400250026103A28BF6B
:1001D00078C1FBD8520728BF30C148BF0B607047B9
:1001E0001FB500F0DBFA1FBD10B510BD00F053F8CD
:1001F0001146FFF7F5FF00F0A6F900F071F803B41F
:10020000FFF7F2FF03BC00F079F800001648174929
:10021000174B99423CBF50F8042B41F8042BF8D3FC
:1002200014494FF000028B4238BF43F8042BFAD335
:10023000DFF84400016841F470010160BFF34F8FA3
:10024000BFF36F8F0D480047FEE7FEE7FEE7FEE7CE
:10025000FEE7FEE7FEE7FEE7FEE7FEE7084809499E
:10026000094A0A4B70470000B80700080000002048
:10027000000000206006002088ED00E089010008F1
:100280006000002060060020600200206002002064
:10029000704770477047754600F02CF8AE46050071
:1002A0006946534620F00700854618B020B5FFF791
:1002B000D5FFBDE820404FF000064FF000074FF09B
:1002C00000084FF0000B21F00701AC46ACE8C00974
:1002D000ACE8C009ACE8C009ACE8C0098D4670477D
:1002E00010B50446AFF300802046BDE81040FFF78C
:1002F00086BF000000487047000000200149182018
:10030000ABBEFEE7260002007047000010B50448AF
:10031000006840F004000249086000F01FF910BDB9
:100320001404014010B50448006840F00800024978
:10033000086000F067F810BD1404014010B50448CF
:10034000006840F020000249086000F041F810BD4C
:100350001404014000280DDB00BF00BF00F01F02A5
:10036000012191404209920002F1E022C2F80011FD
:1003700000BF00BF7047000010B5002804DB0A076B
:10038000130E054A135406E00A07140E034A00F040
:100390000F031B1FD45410BD00E400E018ED00E073
:1003A0000A48C06C40F001000849C8640846C06CA7
:1003B00040F01000C8640846806D40F00100886578
:1003C0000846006E40F40060086670470010024066
:1003D0000B4800681E38642803D87D20084908604F
:1003E0000CE0074800687D2803D27D20044908609E
:1003F00004E0034800681E380149086070470000A7
:10040000342C01400B4800680A30F92803D3F92046
:10041000084908600CE0074800687D2803D27D2069
:100420000449086004E0034800681E300149086080
:1004300070470000342C014010B52848806820F433
:10044000E0602649886008468068886008468068C1
:1004500020F4E0408860084680688860084680682C
:1004600020F0700088600846806888601C4800683A
:1004700040F004001A4908600846006840F008008F
:1004800008600846006840F02000086014480C38F6
:10049000006840F0040012490C3908600846006802
:1004A00040F0080008600846006840F0200008603E
:1004B0000820FFF74FFF00210820FFF75DFF09200C
:1004C000FFF748FF00210920FFF756FF1720FFF72D
:1004D00041FF00211720FFF74FFF10BD0000014032
:1004E0000C0401404FF09040006820F030004FF0C5
:1004F000904108600846006820F0C0000860084687
:10050000006820F4406008600846C06840F02000A1
:10051000C8600846C06820F01000C8600846C0687F
:1005200040F08000C8600846C06820F04000C86005
:100530000846C06840F40060C8600846C06820F4FF
:100540008060C8607047FFF72BFFFFF7CBFFFFF716
:1005500073FF00F009F800BFFEE70000C520014965
:1005600008607047342C01408848006840F400302F
:10057000864908600846006820F480300860084614
:10058000806840F4403088600846C06820F44030FD
:10059000C8600846406A20F00F017C484162406A0A
:1005A00040F00101794841627948006820F010006C
:1005B00077490860032076492831086040F2CF70FF
:1005C000091D086072481830006872490840704977
:1005D000183108600846006840F0200008600846AE
:1005E000006840F0400008600846006840F00800DD
:1005F000086067482030006820F008006449203116
:1006000008600846006840F0040008606048443014
:10061000006840F400405E494431086000205C49B5
:10062000343108605A48006840F0010058490860B9
:100630004FF09040006840F002004FF09041086099
:100640000846006820F0010008600846006840F095
:10065000080008600846006820F0040008600846AA
:10066000806840F0030088600846806840F00C0015
:1006700088600846C06820F00300C8600846C0686B
:1006800020F00C00C8600846006A20F00F000862E5
:100690000846006A40F0010008620846006A20F03F
:1006A000F00008620846006A40F010000862C800C6
:1006B000006820F01000C90008600320886244F63A
:1006C0001F60C86208468069324908404FF0804187
:1006D00088610846806940F020008861084680698A
:1006E00040F040008861084680692B4908404FF07F
:1006F000804188610846806940F40050886108465E
:10070000806940F4804088610846C06921490840FA
:100710004FF08041C8610846806940F00800886158
:100720000846806940F4006088610846006A20F04D
:10073000020008620846006A20F0200008620846AD
:10074000006A40F0010008620846006A40F01000AC
:1007500008620846006840F080000860084640696A
:1007600040F0010048610846006820F06000086021
:100770000846006820F01000086042F210704863DC
:100780008006006840F001000860704700100048D3
:10079000002C01408FFFFEFFFF8FFFFE4FF04070E7
:1007A000E1EE100A70470000B807000800000020C2
:0807B00060060000C40100080E
:040000050800018965
:00000001FF
